:100000000C9400010C941D010C941D010C941D0115
:100010000C941D010C941D010C941D010C941D01E8
:100020000C941D010C941D010C941D010C941D01D8
:100030000C941D010C941D010C941D010C941D01C8
:100040000C941D010C941D010C941D010C941D01B8
:100050000C941D010C941D010C941D010C941D01A8
:100060000C941D010C942A070C941D010C941D0185
:100070000C941D010C941D010C941D010C941D0188
:100080000C941D010C941D010C941D010C941D0178
:100090000C941D010C941D010C941D010C941D0168
:1000A0000C941D010C941D010C941D010C941D0158
:1000B0000C941D010C941D010C941D010C941D0148
:1000C0000C941D010C941D010C941D010C941D0138
:1000D0000C941D010C941D010C941D010C941D0128
:1000E0000C941D010C941D010C941D010C941D0118
:1000F0000C941D010C941D010C941D010C941D0108
:100100000C941D010C941D010C941D010C941D01F7
:100110000C941D010C941D010C941D010C941D01E7
:100120000C941D010C941D010C941D010C941D01D7
:100130000C941D010C941D010C941D010C941D01C7
:100140000C941D010C941D010C941D010C941D01B7
:100150000C941D010C941D010C941D010C941D01A7
:100160000C941D010C941D010C941D010C941D0197
:100170000C941D010C941D01001F000000001F00C5
:10018000001F101010101F00001F181818181F0053
:10019000001F1C1C1C1C1F00001F1E1E1E1E1F00FB
:1001A000001F1F1F1F1F1F0003070F1F0F07030044
:1001B000001F1F1F1F1F1F001B1B1B1B1B1B1B00C8
:1001C000181C1E1F1E1C18000004040E0E1F1F000A
:1001D000001F1F0E0E0404000000000000000000BD
:1001E000000E1915130E0000000E1515150E000057
:1001F000000E1315190E0000000E111F110E000045
:1002000011241FBECFEFCDBFDFE2DEBF10E2A0E0C2
:10021000B0E2EAEBF7E202C005900D92A43BB10711
:10022000D9F722E2A4EBB0E201C01D92A532B207D9
:10023000E1F70E94DC0D0C94DB130C94000021E02C
:10024000FC01238384819581861B9109089521E017
:10025000FC01238384819581861B910967FD939519
:10026000089521E0FC01238384819581089521E094
:10027000FC0123838481089521E0FC01238385818F
:100280000895FC01848114829AE29A95F1F700C0E6
:1002900084830895FC01848191E0948395E59A9587
:1002A000F1F7000084830895FB014423C1F024E0AA
:1002B00030E080E090E061E040814068408343812D
:1002C00040FFFDCF638344815581840F951F2150EA
:1002D000310991F796958795969587950895808130
:1002E00080688083838180FFFDCF81E08383848168
:1002F00095810895FB014423D1F024E030E080E0B3
:1003000090E061E0408140684083438140FFFDCF41
:10031000638344815581840F951F2150310991F7E2
:1003200097FD039695958795959587950895808176
:1003300080688083838180FFFDCF81E08383848117
:1003400095810895AAECB1E092E09C93E82FF0E04B
:1003500084911C920895CF93DF93EC01C11582E044
:10036000D80759F480E20E94A20180930C0281E236
:100370000E94A20180930D0208C084E20E94A201A3
:100380008C8785E20E94A2018D87DF91CF9108952D
:100390000F931F93CF93DF93FB0197FF09C02DE2CB
:1003A0002083CC27DD27C81BD90B21E030E005C016
:1003B000009731F0EC0120E030E00AE010E006C0E8
:1003C00080E38083118281E090E018C0009739F0CB
:1003D0002F5F3F4FB8010E948910CB01F7CFE20F8A
:1003E000F31F10820AE010E0CE01B8010E948910CC
:1003F000EB01805D82932097B9F7C901DF91CF911E
:100400001F910F910895AC0190E0FA01E90FF11DE1
:100410002081222341F08091A10885FFFCCF209309
:10042000A0089F5FF2CF0895FB0184E08430B9F407
:100430008091080684FD12C08091080685FD0CC0DD
:100440008091080686FD06C09091080680E097FF1F
:10045000EFCFECCF81E003C083E001C082E0908168
:10046000911107C0823009F066C081E08083F901F4
:100470004EC0953009F045C0813009F05CC0108253
:1004800010921D2210921E2210921F2210922022E2
:100490001092C6201092C7201092C8201092C92036
:1004A0001092BA201092BB201092BC201092BD2056
:1004B0001092192210921A2210921B2210921C22C2
:1004C0001092BE201092BF201092C0201092C12026
:1004D0001092C2201092C3201092B4201092B52026
:1004E0001092B6201092B7201092C4201092C5200E
:1004F0001092212210922222109223221092242262
:100500001AC0913031F4823059F08130A1F4108258
:1005100012C0923081F0943029F48230C1F785E026
:10052000808309C0FFE72AE186E0F1502040804047
:10053000E1F700C000009FE7E8E3F1E09150E04000
:10054000F040E1F700C0000081E090E008952F92B4
:100550003F924F925F926F927F928F929F92AF9253
:10056000BF92CF92DF92EF92FF920F931F93CF93A0
:10057000DF93CDB7DEB7CD5CDB40CDBFDEBFC6536A
:10058000D44F8883CA5CDB40C553D44F9883CB5C7F
:10059000DB405B013A012901CD53D44F0883198315
:1005A000C35CDB40C154D44FE882F982CF5BDB40AF
:1005B000C753D44FC882C95CDB401092BE20109252
:1005C000BF201092BA201092BB201092BC20109233
:1005D000BD201092212210922222109223221092EA
:1005E00024221092C0201092C1201092C22010929A
:1005F000C3201092B4201092B5201092B620109211
:10060000B7201092C6201092C7201092C8201092D6
:10061000C9201092192210921A2210921B221092B5
:100620001C221092C4201092C52010921D221092FC
:100630001E2210921F2210922022CA01805C994F24
:1006400081389C4080F4C201805C994F81389C4085
:1006500050F4CB010A978F31934228F4C7010197D8
:100660008034964040F00E944C0B0E94420B6EE09A
:1006700080E090E2A6C0BA01052E000C880B990B11
:100680006201052C000CEE08FF089201241B350BBB
:10069000121613067CF50E94DB112AE030EE4EE9BB
:1006A0005FE30E948B120E94F81220E030E040E0ED
:1006B00055E40E94C0100E94A3114B01C701B6016E
:1006C0000E94DB112AE030EE4EE95FE30E948B12BC
:1006D0000E94F81220E030E040E055E40E94C01093
:1006E0000E94A3111B01E1E0C554D44FE883CB5B0A
:1006F000DB402DC00E94DB112AE030EE4EE95FE3C3
:100700000E948B120E94F81220E030E040E055E495
:100710000E94C0100E94A3111B01C701B6010E94D4
:10072000DB112AE030EE4EE95FE30E948B120E945B
:10073000F81220E030E040E055E40E94C0100E9432
:10074000A3114B01C554D44F1882CB5BDB40CD5372
:10075000D44FE880F980C35CDB40EE0CFF1CC15431
:10076000D44F28813981CF5BDB40B901330F880B2F
:10077000990B0E94DB112AE030EE4EE95FE30E9404
:100780008B120E94F8120E94AA11C953D44F688399
:100790007983C75CDB40C101881999090E947510F3
:1007A000E69EC001E79E900DF69E900D11248D3DB2
:1007B000954060F00E944C0B0E94420B64E18FE078
:1007C00090E20E94A40B8FEF9FEF2DC3B5010B2C7D
:1007D000000C880B990BAFE1AA16B10414F10E942A
:1007E000DB119B01AC0160E070E080E89FE30E94B8
:1007F000311120E034E244EF59E40E948B1220E0F2
:1008000030E44EE45FE30E948B120E94F8120E94D3
:10081000AA11CF53D44F68837983C15CDB4081E058
:1008200021C00E94DB119B01AC0160E070E080E818
:100830009FE30E94311120E034E244EF58E40E942B
:100840008B1220E030E44EE45FE30E948B120E94A2
:10085000F8120E94AA11CF53D44F68837983C15CE8
:10086000DB4083E080930008C554D44FB881CB5B54
:10087000DB40B11102C0810101C0840182E080939C
:10088000850684E080938506C753D44FE881C95C10
:10089000DB4088E0E13019F48093860602C0809343
:1008A000850681E08093860660E070E080E293E058
:1008B0000E944B098823C1F340E050E0B80180E278
:1008C00093E00E944209FFE926E831E0F150204020
:1008D0003040E1F700C00000C754D44F188219829D
:1008E000C95BDB40C12CD12C60E070E080E293E07A
:1008F0000E944B098823C1F340E050E0B80180E238
:1009000093E00E9442091092200810922108C554D9
:10091000D44F8881CB5BDB40882331F00F5F1F4FC2
:10092000021513053CF41CC00150110980169106F4
:1009300064F416C091E0E91AF10809F4A2C0C554A4
:10094000D44F1882CB5BDB400BC0A1E0EA1AF10860
:1009500009F497C0B1E0C554D44FB883CB5BDB40FA
:10096000C754D44FE881F981C95BDB40EE0FFF1F0C
:1009700021E030E02C0F3D1FE20FF31F10821182A7
:10098000CB53D44FE883F983C55CDB4080912008CA
:1009900090912108CF53D44F28813981C15CDB402D
:1009A0008217930708F052C08091280280688093D4
:1009B000280280912B0280FD0DC08091200890912B
:1009C0002108CF53D44F28813981C15CDB40821785
:1009D000930778F3CB53D44FA881B981C55CDB4032
:1009E0002D913C9160E088E292E02115310559F4A7
:1009F0000E942701CB53D44FE881F981C55CDB40CD
:100A000080839183C3CFC453D44F2883CC5CDB4015
:100A1000C353D44F3883CD5CDB400E942701C453BD
:100A2000D44F2881CC5CDB40C353D44F3881CD5C9C
:100A3000DB40820F931F95958795CB53D44FA881A8
:100A4000B981C55CDB408D939C93A0CF3FEFC31A67
:100A5000D30AC953D44F88819981C75CDB40C8163B
:100A6000D90608F441CFC754D44FA881B981C95BD6
:100A7000DB401196C754D44FA883B983C95BDB40D0
:100A800031CF81E08093850682E08093860684E002
:100A90008093860688E08093860660E070E080E2BE
:100AA00093E00E944B098823C1F340E050E060E0EE
:100AB00078E080E293E00E9442098091A10885FFDE
:100AC000FCCF81E08093A008C653D44FE881CA5C74
:100AD000DB40C553D44FF881CB5CDB40CF010F9690
:100AE0002091A10825FFFCCF21912093A008E817B1
:100AF000F907B1F78091A10885FFFCCFB092A0085B
:100B00008091A10885FFFCCFA092A0088091A10848
:100B100085FFFCCF7092A0088091A10885FFFCCFD3
:100B20006092A0088091A10885FFFCCF5092A00898
:100B30008091A10885FFFCCF4092A0088091A10878
:100B400085FFFCCFCC53D44FB881C45CDB40B0935D
:100B5000A0088091A10885FFFCCFCD53D44FE88138
:100B6000C35CDB40E093A0088091A10885FFFCCF27
:100B7000C054D44FF881C05CDB40F093A008809152
:100B8000A10885FFFCCFC154D44F2881CF5BDB4047
:100B90002093A0088091A10885FFFCCFC753D44FB4
:100BA0003881C95CDB403093A0088091A10885FFA3
:100BB000FCCFC654D44F8881CA5BDB408093A00829
:100BC0008091A10885FFFCCFC754D44F9881C95BA1
:100BD000DB409093A008C754D44FE881F981C95BEA
:100BE000DB40EE7FA1E0B0E0AC0FBD1FEA0FFB1FC2
:100BF00060817181072E000C880B990B0E94DB111C
:100C00003B018C01CB01D80180931D2290931E22C1
:100C1000A0931F22B0932022C090BE20D090BF206E
:100C2000FE0131967F01A12CB12CC754D44F2881ED
:100C30003981C95BDB40A216B30681F18091A1081E
:100C400085FFFCCFD7018D909D907D019092A008EB
:100C50008091A10885FFFCCF8092A008B7E8AB1671
:100C6000B1E0BB06B8F0B401092C000C880B990B5D
:100C70000E94DB111B012C019B01AC01B301C801D7
:100C80000E942C1187FD02C013012801C80CD91C39
:100C900031018201EFEFAE1ABE0AC7CFC301D801FE
:100CA00080931D2290931E22A0931F22B093202296
:100CB000C092BE20D092BF20C6016DE771E00E94B5
:100CC0008910072E000C880B990B0E94DB11C5546C
:100CD000D44F688379838A839B83CB5BDB406093AB
:100CE000192270931A2280931B2290931C228090C9
:100CF000212290902222A0902322B0902422409082
:100D0000C0205090C1206090C2207090C320C0903D
:100D1000B420D090B520E090B620F090B720212CE0
:100D2000312C07E811E0C754D44F88819981C95B01
:100D3000DB408017910780F1EFE0F3E0EC0FFD1F3F
:100D4000E20DF31D60817181072E000C880B990B59
:100D50000E94DB119B01AC01C554D44F688179819D
:100D60008A819B81CB5BDB400E94BF104B015C0101
:100D70009B01AC010E948B122B013C019B01AC0139
:100D8000C701B6010E94C0106B017C010F5F1F4FAD
:100D900032E0230E311CC7CF809221229092222272
:100DA000A0922322B09224224092C0205092C120CF
:100DB0006092C2207092C320C092B420D092B5201D
:100DC000E092B620F092B7200093C4201093C52083
:100DD00020E030E84EEB53E4C701B6010E94311128
:100DE0006093BA207093BB208093BC209093BD2069
:100DF0000E9422136093C6207093C7208093C8205E
:100E00009093C9208091A10885FFFCCF81E0809359
:100E1000A008C754D44F8881C95BDB40C654D44F67
:100E20009881CA5BDB40C353D44FCDBFDEBFDF9197
:100E3000CF911F910F91FF90EF90DF90CF90BF90D7
:100E4000AF909F908F907F906F905F904F903F906A
:100E50002F9008951F920F920FB60F921124EF92C8
:100E6000FF920F931F932F933F934F935F936F9333
:100E70007F938F939F93AF93BF93CF93DF93EF9322
:100E8000FF9389E092E20E94950D89E092E20E9430
:100E9000810D882309F42DC189E092E20E94890D19
:100EA000853709F026C1CAECD0E200E010E0E12C61
:100EB000F12C89E092E20E94950D89E092E20E9475
:100EC000810D8823B1F389E092E20E94890DFE0131
:100ED000EE0DFF1D80832FEFE21AF20A3FE0E316CA
:100EE000F10439F789E092E20E94950D89E092E2DF
:100EF0000E94810D8823B1F389E092E20E94890D5E
:100F0000F801E653FF4D7F01878789E092E20E9456
:100F1000950D89E092E20E94810D8823B1F389E06A
:100F200092E20E94890D188A898B89E092E20E94E0
:100F3000950D89E092E20E94810D8823B1F389E04A
:100F400092E20E94890D28893989282B288B398BB8
:100F500089E092E20E94950D89E092E20E94810D63
:100F60008823B1F389E092E20E94890D1A8A8B8B63
:100F700089E092E20E94950D89E092E20E94810D43
:100F80008823B1F389E092E20E94890D2A893B8986
:100F9000282B2A8B3B8B89E092E20E94950D89E0F9
:100FA00092E20E94810D8823B1F389E092E20E94CF
:100FB000890D1C8A8D8B89E092E20E94950D89E053
:100FC00092E20E94810D8823B1F389E092E20E94AF
:100FD000890D2C893D89282B2C8B3D8B89E092E251
:100FE0000E94950D89E092E20E94810D8823B1F361
:100FF00089E092E20E94890D1E8A8F8B89E092E23D
:101000000E94950D89E092E20E94810D8823B1F340
:1010100089E092E20E94890D2E893F89282B2E8B30
:101020003F8B89E092E20E94950D89E092E20E9456
:10103000810D8823B1F389E092E20E94890D188E18
:10104000898F89E092E20E94950D89E092E20E94E8
:10105000810D8823B1F389E092E20E94890D288DE9
:10106000398D282B288F398F89E092E20E94950DC7
:1010700089E092E20E94810D8823B1F389E092E237
:101080000E94890D1A8E8B8F89E092E20E94950D45
:1010900089E092E20E94810D8823B1F389E092E217
:1010A0000E94890D2A8D3B8D282B2A8F3B8F89E04A
:1010B00092E20E94950D89E092E20E94810D8823C0
:1010C000B1F389E092E20E94890DF701948D892B9A
:1010D000848FB801605070404DE150E0CE010E9415
:1010E000A513035E1F4F6D960F33F1E01F0709F044
:1010F000DECE8091A10885FFFCCF8AE78093A0080F
:10110000EAECF0E220E030E080E090E04091A108DD
:1011100045FFFCCFDF01A80FB91F4C914093A008F9
:1011200001968F30910591F78091A10885FFFCCF42
:10113000D901A653BF4D1F968C911F978093A0088D
:101140008091A10885FFFCCF808991899093A008A8
:101150009091A10895FFFCCF8093A0088091A108F1
:1011600085FFFCCF828993899093A0089091A10874
:1011700095FFFCCF8093A0088091A10885FFFCCF4C
:10118000848995899093A0089091A10895FFFCCF40
:101190008093A0088091A10885FFFCCF868997895C
:1011A0009093A0089091A10895FFFCCF8093A00890
:1011B0008091A10885FFFCCF808D918D9093A00830
:1011C0009091A10895FFFCCF8093A0088091A10881
:1011D00085FFFCCF828D938D9093A0089091A108FC
:1011E00095FFFCCF8093A0088091A10885FFFCCFDC
:1011F0005C968C918093A008235E3F4F7D962F33A1
:1012000081E0380709F080CF8091A10885FFFCCFED
:101210008AE78093A008FF91EF91DF91CF91BF9172
:10122000AF919F918F917F916F915F914F913F917E
:101230002F911F910F91FF90EF900F900FBE0F9085
:101240001F901895FC0181818F7981838281867E30
:10125000482B462B42838081827F8560808308955E
:101260000F93FC0181818F79806481838281867EE6
:10127000482B462B4283202B248380818D608083E2
:101280000F910895FC01452B19F4608F718F08951B
:10129000628F738F0895FC012581822F90E0672B68
:1012A00019F421E030E002C022E030E028233923A5
:1012B00081E0232B09F480E00895FC0181818C7F7B
:1012C000682B6183477043830895E4E4F6E08081EE
:1012D0008F7D808380818F7B808380818F778083E7
:1012E000E0E4F6E080818062808380818064808396
:1012F000808180688083E0E6F6E08081807F808363
:10130000E4E6F6E080818F60808308958091440652
:101310008F7D8093440680916006807F8093600675
:10132000809164068F608093640680914406806497
:10133000809344068091440680688093440684E14B
:101340008A95F1F78091680683FF2AC08091440650
:101350008F778093440684E18A95F1F784E18A953A
:10136000F1F78091440680688093440684E18A9571
:10137000F1F784E18A95F1F7809144068F778093A5
:10138000440684E18A95F1F784E18A95F1F780912A
:10139000440680688093440684E18A95F1F7CFCFB4
:1013A000809144068F77809344060895CF93DF930E
:1013B0001F92CDB7DEB789830E948609E4E4F6E088
:1013C00090819F7D908390819F7B90839081906896
:1013D000908340E656E0DA019C919F609C93A4E6DE
:1013E000B6E09C918981282F22952F70907F922BB7
:1013F0009C9394E19A95F1F794E19A95F1F7908195
:101400009F77908394E19A95F1F794E19A95F1F79B
:101410009081906890839C918F70907F892B8C93A2
:1014200084E18A95F1F794E19A95F1F780818F77BD
:101430008083FA018081807F80838C918F608C9380
:101440000F90DF91CF910895CF93DF93E4E4F6E01E
:1014500090819F7D908390819F7B90839081906805
:101460009083C0E6D6E098819F609883A4E6B6E0BA
:101470009C9182958F70907F892B8C9384E18A95C3
:10148000F1F784E18A95F1F780818F7780838881F5
:10149000807F88838C918F608C93DF91CF910895AA
:1014A0000E948609E0E6F6E08081807F8083E4E6A2
:1014B000F6E080818F608083E4E4F6E080818F7DB8
:1014C000808380818064808380818068808384E1E0
:1014D0008A95F1F784E18A95F1F7A8E6B6E09C9148
:1014E00080818F77808384E18A95F1F784E18A9502
:1014F000F1F780818068808384E18A95F1F784E147
:101500008A95F1F72C912F70892F8295807F908199
:101510009F779083822B0895CF93DF931F92CDB74F
:10152000DEB789830E948609E4E4F6E09081906248
:10153000908390819F7B908390819068908340E618
:1015400056E0DA019C919F609C93A4E6B6E09C91E2
:101550008981282F22952F70907F922B9C9394E164
:101560009A95F1F794E19A95F1F790819F7790839E
:1015700094E19A95F1F794E19A95F1F7908190684A
:1015800090839C918F70907F892B8C9384E18A95B6
:10159000F1F794E19A95F1F780818F778083FA01D2
:1015A0008081807F80838C918F608C930F90DF91FE
:1015B000CF9108950E948609E0E6F6E08081807F61
:1015C0008083E4E6F6E080818F608083E4E4F6E0E7
:1015D0008081806280838081806480838081806854
:1015E000808384E18A95F1F784E18A95F1F7A8E692
:1015F000B6E09C9180818F77808384E18A95F1F7B2
:1016000084E18A95F1F780818068808384E18A95FE
:10161000F1F784E18A95F1F72C912F70892F82954B
:101620008F7090819F779083822B08950E94650927
:1016300080E30E94240A87EE93E00197F1F700C04F
:10164000000080E30E94240A80E30E94240A80E2D2
:101650000E94240A89E20E94D60985E10E94D609E7
:1016600082E70E94D60985E50E94D6098EE60E948F
:10167000D6098CE00E94D60981E00E94D60986E056
:101680000C94D60982E00E94D60987EE93E0019778
:10169000F1F700C00000089581E00E94D60987EEAE
:1016A00093E00197F1F700C000000895623031F037
:1016B000633031F0613029F4805F03C0805E01C087
:1016C0008C5A80680C94D609AF92BF92CF92DF9269
:1016D000FF920F931F93CF93DF931F92CDB7DEB787
:1016E0006C01062FF42E0E94500A982F9F77FF0C52
:1016F000FF0CFF0C000F000F000FA12CB12C10E00D
:101700008A2D8F0D806499830E94D609F501E00F20
:10171000F11FEC0DFD1D84910E948C0A8FEFA81A19
:10172000B80A998188E0A816B10451F7892F80681A
:101730000F90DF91CF911F910F91FF90DF90CF908D
:10174000BF90AF900C94D609EF92FF921F93CF9366
:10175000DF931F92CDB7DEB7009771F0182F7C0191
:101760008E2D811B861740F4F70181917F016983DB
:101770000E948C0A6981F4CF0F90DF91CF911F9165
:10178000FF90EF9008958F929F92AF92BF92CF9269
:10179000DF92EF92FF921F93CF93DF93142F46E0D7
:1017A000489F9001499F300D1124129FC001139F43
:1017B000900D11240E9475106B01E12CF12CC701D2
:1017C000B60126E030E040E050E00E949D10D62FA8
:1017D000812C912C5401C0E0C117E9F0D501C4015E
:1017E0000596A11DB11DC816D906EA06FB0638F4F8
:1017F000C814D904EA04FB0420F480E003C085E0A7
:1018000001C08D2F0E948C0ACF5F86E0880E911C4C
:10181000A11CB11CE1CFDF91CF911F91FF90EF9000
:10182000DF90CF90BF90AF909F908F900895AF9230
:10183000CF92EF920F93FC016083718342835383B5
:101840001482C11002C090E001C090E8211102C0D2
:1018500080E001C080E20065A02A9A29892BDB0183
:101860008C93A081B1811196EC9215821682028030
:10187000F381E02D80EA81830F91EF90CF90AF90BC
:101880000895EF920F93FC01608371834283538329
:10189000211102C080E401C080E6082BDB010C931B
:1018A000A081B1811196EC920280F381E02D80E459
:1018B00081830F91EF900895EF920F931F93FC0196
:1018C00000831183E2826383748345835683278375
:1018D000108611861F910F91EF900895CF93DF939B
:1018E000FC01A581B68118968C911897C081D18191
:1018F000988194FD03C091E0948329C09B81159643
:101900000D90BC91A02DA80FB11D9C938F5FA58158
:10191000B68117969C911797891760F413960D90CE
:10192000BC91A02DA80FB11D9C91A081B1811396EF
:101930009C930DC012969C9112970D90BC91A02D76
:1019400015969C93A581B68191E019969C9305808C
:10195000F681E02D8087DF91CF910895CF93DF93BB
:10196000FC01DB018481C581D681209751F09985E6
:10197000992331F1882329F0C281D3818C8184FF9E
:1019800021C0A583B68319961C92199714821296CA
:101990008C9112970D90BC91A02D16968C93A581D9
:1019A000B68118961C92A581B68113960D90BC91B4
:1019B000A02D8C910190F081E02D838380E003C005
:1019C00082E001C081E0DF91CF910895DC01ED91CB
:1019D000FC9111976383ED91FC91828187FFFDCF8C
:1019E00083810895CF93DF93FC01DB01109709F405
:1019F00043C06583768312963C911297CD91DC911A
:101A00001197209709F03E8317962C9180E090E083
:101A1000A581B6818217F8F413960D90BC91A02D84
:101A2000A80FB91F4C91A081B18113964C93A0814E
:101A3000B18112964C91129747FFFBCF13964C91B0
:101A4000A581B68115960D90BC91A02DA80FB91F48
:101A50004C930196DDCF0D90BC91A02D109711F005
:101A600015963C93A581B68118962C930580F68136
:101A7000E02D81E0818701C080E0DF91CF91089562
:101A8000FC01608371834283538315861486178615
:101A900016860895FC01628373830895FC01968580
:101AA00027859F5F937081E0921301C080E00895C5
:101AB0000F931F93CF93DF931F92CDB7DEB78C01A7
:101AC00069830E944E0D69818823A9F0D8011E9672
:101AD0009C911E97F801E90FF11D60879F5F93703D
:101AE000F80196870190F081E02D93819C7F1296FA
:101AF0002C91922B93830F90DF91CF911F910F9197
:101B00000895FC012485958581E0291301C080E0BA
:101B10000895FC018585DF01A80FB11D14968C91F5
:101B200095859F5F937095870895FC0184858F5FED
:101B300083702585A081B1819C91821749F024850D
:101B4000DF01A20FB11D14969C93848781E0089554
:101B500080E00895CF93DF93FC0187859685A0816F
:101B6000B181981307C013968C9113978C7F1396AD
:101B70008C930AC08785EF01C80FD11D88858C938F
:101B800087858F5F83708787DF91CF910895FC01F0
:101B9000848170FF02C0816001C08E7F8483608376
:101BA0000895FC01848180FF04C0808190E09160F1
:101BB0000895808190E00895CF93DF93CDB7DEB78D
:101BC0006997CDBFDEBF80E1809302068093140643
:101BD00090E2909302068093150690E4909302069B
:101BE0008093160690E8909302068093170632E0E1
:101BF0003093810621E02093810694E09093810642
:101C000088E0809381063093860620938506909322
:101C100086068093860600E010E020E030E040E099
:101C200068E070E080E293E00E94300961E070E0DB
:101C300080E293E00E944B098823C1F341E050E029
:101C400060E078E080E293E00E94420960E070E0AA
:101C500080E293E00E944B098823C1F340E050E00A
:101C600060E078E080E293E00E94420988E080939F
:101C7000410684E08093420641E050E060EA78E06B
:101C800089E092E20E94400D83E08093A508809154
:101C9000A3088F7C80618093A3088CE08093A608C2
:101CA0001092A7088091A40880618093A408809175
:101CB000A40888608093A40880E092E00E94AB01B1
:101CC00080910102897E80618093010280910402EB
:101CD000887F816080930402809102028F7C806102
:101CE0008093020280912002807E82608093200295
:101CF00080912802807E82608093280211E01093F8
:101D0000210281E180932902809100028160809309
:101D100000020E94160B0E94160B0E944C0B0E94A0
:101D2000420B6CE084E290E20E94A40B2FE78AE170
:101D300096E0215080409040E1F700C00000198EED
:101D4000188F1F8A1E8A1D8A00E010E0B8016050BB
:101D500070404DE150E0C80186539F4D0E94991399
:101D6000035E1F4F0F3321E0120781F78091A2001D
:101D700081608093A200789461E370E287EE90E244
:101D80000E94921381E08093F62088E191E0809395
:101D9000F7209093F82084E49DEF8093F9209093AE
:101DA000FA208CEB92E08093FB209093FC2082E061
:101DB00090E08093FD209093FE2087E090E0809358
:101DC000FF2090930021109201211092022182E0C5
:101DD0008093032100E010E0B801605070404DE1B5
:101DE00050E0C80186539F4D0E94A513035E1F4F0C
:101DF0000F3381E0180781F7898D81112FC00E9470
:101E00004C0B0E94420B61E081E490E20E94A40B23
:101E10006EE083E490E20E94A40B61E080E00E9407
:101E2000560B68E082E590E20E94A40BCE01439637
:101E30006C0102967C018E010A5E1F4F9E01295E95
:101E40003F4FAE01485E5F4FBE01675E7F4F8AEC39
:101E500090E20E941402019749F7CECF853009F035
:101E6000B4C00E944C0B0E94420B68E08BE590E2EC
:101E70000E94A40B6091C6207091C7208091C82059
:101E80009091C9200E94A3116B017C01072E000CC8
:101E9000880B990B0E94DB116093C6207093C720BA
:101EA0008093C8209093C920BE016F5F7F4FC60109
:101EB0000E94C801682FCE0101960E94A40B61E028
:101EC00080E00E94560B6091192270911A22809135
:101ED0001B2290911C220E94A311072E000C880B3C
:101EE000990B0E94DB116093192270931A22809340
:101EF0001B2290931C2267E084E690E20E94A40BD0
:101F00006091192270911A2280911B2290911C22BB
:101F10000E94A311DC01CB01BE016F5F7F4F0E94C5
:101F2000C801682FCE0101960E94A40B62E080E0F8
:101F30000E94560B60911D2270911E2280911F22DB
:101F4000909120220E94A311072E000C880B990B60
:101F50000E94DB1160931D2270931E2280931F222A
:101F60009093202266E08CE690E20E94A40B6091A0
:101F70001D2270911E2280911F22909120220E948A
:101F8000A311DC01CB01BE016F5F7F4F0E94C8012E
:101F9000682FCE0101960E94A40BCE0143966C01DE
:101FA00002967C018E010A5E1F4F9E01295E3F4F03
:101FB000AE01485E5F4FBE01675E7F4F8AEC90E2E4
:101FC0000E941402019749F717CF813031F50E9422
:101FD0004C0B0E94420B61E081E490E20E94A40B52
:101FE0006AE083E790E20E94A40BCE0143966C0165
:101FF00002967C018E010A5E1F4F9E01295E3F4FB3
:10200000AE01485E5F4FBE01675E7F4F8AEC90E293
:102010000E941402019749F7EFCE823081F50E94A9
:102020004C0B0E94420B6AE08EE790E20E94A40BE8
:10203000E88D9DE1E99FF0011124E653FF4DE08C0E
:10204000F18C0689178924893589428953896089E9
:102050007189C48CCF010E94A7028B8B9C8B019647
:1020600059F48FE79AE126E0815090402040E1F753
:1020700000C0000083E001C084E0898FBDCE8430C1
:1020800009F0BACE0E944C0B0E94420B6DE08AE828
:1020900090E20E94A40B61E080E00E94560B6EE08B
:1020A00088E990E20E94A40B62E080E00E94560B57
:1020B0006CE087EA90E20E94A40BCE0143966C018B
:1020C00002967C018E010A5E1F4F9E01295E3F4FE2
:1020D000AE01485E5F4FBE01675E7F4F8AEC90E2C3
:1020E0000E941402019749F787CEAA1BBB1B51E13E
:1020F00007C0AA1FBB1FA617B70710F0A61BB70B78
:10210000881F991F5A95A9F780959095BC01CD011C
:10211000089597FB072E16F4009407D077FD09D099
:102120000E94751007FC05D03EF4909581959F4F55
:102130000895709561957F4F0895A1E21A2EAA1B0C
:10214000BB1BFD010DC0AA1FBB1FEE1FFF1FA21767
:10215000B307E407F50720F0A21BB30BE40BF50B64
:10216000661F771F881F991F1A9469F760957095ED
:10217000809590959B01AC01BD01CF010895505809
:10218000BB27AA270E94D7100C9451120E94431219
:1021900038F00E944A1220F039F49F3F19F426F4D7
:1021A0000C9440120EF4E095E7FB0C943A12E92FE0
:1021B0000E94621258F3BA176207730784079507E3
:1021C00020F079F4A6F50C9484120EF4E0950B2E11
:1021D000BA2FA02D0B01B90190010C01CA01A00179
:1021E0001124FF27591B99F0593F50F4503E68F1D4
:1021F0001A16F040A22F232F342F4427585FF3CF15
:10220000469537952795A795F0405395C9F77EF4E5
:102210001F16BA0B620B730B840BBAF09150A1F02E
:10222000FF0FBB1F661F771F881FC2F70EC0BA0FB4
:10223000621F731F841F48F4879577956795B7953C
:10224000F7959E3F08F0B0CF9395880F08F0992737
:10225000EE0F9795879508950E94161208F481E075
:1022600008950E9445110C9451120E944A1258F090
:102270000E94431240F029F45F3F29F00C943A1277
:1022800051110C9485120C9440120E94621268F352
:102290009923B1F3552391F3951B550BBB27AA271F
:1022A00062177307840738F09F5F5F4F220F331F59
:1022B000441FAA1FA9F335D00E2E3AF0E0E832D021
:1022C00091505040E695001CCAF72BD0FE2F29D024
:1022D000660F771F881FBB1F261737074807AB07F6
:1022E000B0E809F0BB0B802DBF01FF2793585F4F6B
:1022F0003AF09E3F510578F00C943A120C948512F6
:102300005F3FE4F3983ED4F3869577956795B7954C
:10231000F7959F5FC9F7880F911D9695879597F957
:102320000895E1E0660F771F881FBB1F62177307D0
:102330008407BA0720F0621B730B840BBA0BEE1FE5
:1023400088F7E09508950E94AA116894B1110C9441
:10235000851208950E946A1288F09F5798F0B92F4D
:102360009927B751B0F0E1F0660F771F881F991FCA
:102370001AF0BA95C9F714C0B13091F00E948412D6
:10238000B1E008950C948412672F782F8827B85FE6
:1023900039F0B93FCCF3869577956795B395D9F722
:1023A0003EF490958095709561957F4F8F4F9F4F2C
:1023B0000895E89409C097FB3EF490958095709538
:1023C00061957F4F8F4F9F4F9923A9F0F92F96E981
:1023D000BB279395F695879577956795B795F111F6
:1023E000F8CFFAF4BB0F11F460FF1BC06F5F7F4F93
:1023F0008F4F9F4F16C0882311F096E911C07723A5
:1024000021F09EE8872F762F05C0662371F096E8AD
:10241000862F70E060E02AF09A95660F771F881F7C
:10242000DAF7880F9695879597F90895990F000820
:10243000550FAA0BE0E8FEEF16161706E807F90796
:10244000C0F012161306E407F50798F0621B730B31
:10245000840B950B39F40A2661F0232B242B252BB2
:1024600021F408950A2609F4A140A6958FEF811D55
:10247000811D089597F99F6780E870E060E00895F6
:102480009FEF80EC089500240A941616170618068C
:102490000906089500240A94121613061406050668
:1024A0000895092E0394000C11F4882352F0BB0FF9
:1024B00040F4BF2B11F460FF04C06F5F7F4F8F4F5C
:1024C0009F4F089557FD9058440F551F59F05F3F97
:1024D00071F04795880F97FB991F61F09F3F79F046
:1024E00087950895121613061406551FF2CF4695C8
:1024F000F1DF08C0161617061806991FF1CF86954A
:102500007105610508940895E894BB27662777272D
:10251000CB0197F908950E949E120C9451120E94CB
:10252000431238F00E944A1220F0952311F00C94C7
:102530003A120C94401211240C9485120E946212DB
:1025400070F3959FC1F3950F50E0551F629FF00106
:10255000729FBB27F00DB11D639FAA27F00DB11D1F
:10256000AA1F649F6627B00DA11D661F829F2227A8
:10257000B00DA11D621F739FB00DA11D621F839F2F
:10258000A00D611D221F749F3327A00D611D231F05
:10259000849F600D211D822F762F6A2F11249F5753
:1025A00050409AF0F1F088234AF0EE0FFF1FBB1F56
:1025B000661F771F881F91505040A9F79E3F510515
:1025C00080F00C943A120C9485125F3FE4F3983E2D
:1025D000D4F3869577956795B795F795E7959F5FBF
:1025E000C1F7FE2B880F911D9695879597F9089551
:1025F0000E946A12E8F09E37E8F09639B8F49E38E7
:1026000048F4672F782F8827985FF9CF86957795BC
:10261000679593959539D0F3B62FB1706B0F711DF7
:10262000811D20F487957795679593950C94621397
:102630000C947D130C94851219F416F40C9440122A
:102640000C947D130E946A12B8F39923C9F3B6F370
:102650009F57550B87FF0E948B130024A0E640EA8A
:10266000900180585695979528F4805C660F771FE7
:10267000881F20F026173707480730F4621B730BBA
:10268000840B202931294A2BA695179407942025DD
:1026900031254A2758F7660F771F881F20F0261725
:1026A0003707480730F4620B730B840B200D311D84
:1026B000411DA09581F7B901842F9158880F9695F7
:1026C00087950895882371F4772321F09850872BFC
:1026D000762F07C0662311F499270DC09051862BE1
:1026E00070E060E02AF09A95660F771F881FDAF78E
:1026F000880F9695879597F908959F3F31F09150EF
:1027000020F4879577956795B795880F911D9695D5
:10271000879597F9089591505040660F771F881F4D
:10272000D2F70895FB01DC0101900D920020E1F742
:102730000895E0ECF1E0A785A7FDFDCFA485A86092
:10274000A4876050704F0C94D213DC01CB0103C0FE
:102750002D910E94B01341505040D0F70895262F7C
:10276000E0ECF1E0378537FDFDCF3485377F3487E6
:10277000378531FF09C036E3328738ED34BF31E0A9
:102780003387378537FDFDCF33E3328780839183ED
:102790001282248325E3228728ED31E024BF33878A
:1027A00001960895FB01DC0102C001900D92415099
:0A27B0005040D8F70895F894FFCFC9
:1027BA006F757473696465206C696D6974730074EC
:1027CA006F6F206D616E79206461746120706F692A
:1027DA006E74730043444143204B6F6C6B617461A8
:1027EA000043562023312020202020202020202092
:1027FA00007E005269676874207072657373207472
:10280A006F00737461727420435600537444657682
:10281A00203D20004D65616E203D20004D617820ED
:10282A003D2000537461727420746573740054659A
:10283A007374696E672E2E2E2E00546573742043AE
:10284A006F6D706C65746500507265737320726980
:10285A0067687420746F007669657720726573758E
:04286A006C74730017
:00000001FF
