:100000000C9400010C941D010C941D010C941D0115
:100010000C941D010C941D010C941D010C941D01E8
:100020000C941D010C941D010C941D010C941D01D8
:100030000C941D010C941D010C941D010C941D01C8
:100040000C941D010C941D010C941D010C941D01B8
:100050000C941D010C941D010C941D010C941D01A8
:100060000C941D010C94C3050C941D010C941D01EE
:100070000C941D010C941D010C941D010C941D0188
:100080000C941D010C941D010C941D010C941D0178
:100090000C941D010C941D010C941D010C941D0168
:1000A0000C941D010C941D010C941D010C941D0158
:1000B0000C941D010C941D010C941D010C941D0148
:1000C0000C941D010C941D010C941D010C941D0138
:1000D0000C941D010C941D010C941D010C941D0128
:1000E0000C941D010C941D010C941D010C941D0118
:1000F0000C941D010C941D010C941D010C941D0108
:100100000C941D010C941D010C941D010C941D01F7
:100110000C941D010C941D010C941D010C941D01E7
:100120000C941D010C941D010C941D010C941D01D7
:100130000C941D010C941D010C941D010C941D01C7
:100140000C941D010C941D010C941D010C941D01B7
:100150000C941D010C941D010C941D010C941D01A7
:100160000C941D010C941D010C941D010C941D0197
:100170000C941D010C941D01001F000000001F00C5
:10018000001F101010101F00001F181818181F0053
:10019000001F1C1C1C1C1F00001F1E1E1E1E1F00FB
:1001A000001F1F1F1F1F1F0003070F1F0F07030044
:1001B000001F1F1F1F1F1F001B1B1B1B1B1B1B00C8
:1001C000181C1E1F1E1C18000004040E0E1F1F000A
:1001D000001F1F0E0E0404000000000000000000BD
:1001E000000E1915130E0000000E1515150E000057
:1001F000000E1315190E0000000E111F110E000045
:1002000011241FBECFEFCDBFDFE2DEBF10E2A0E0C2
:10021000B0E2E2E7F9E202C005900D92A037B10723
:10022000D9F721E2A0E7B0E201C01D92A33CB207DA
:10023000E1F70E94750C0C94B7140C94000021E0B7
:10024000FC01238384819581861B9109089521E017
:10025000FC01238384819581861B910967FD939519
:10026000089521E0FC01238384819581089521E094
:10027000FC0123838481089521E0FC01238385818F
:100280000895FC01848114829AE29A95F1F700C0E6
:1002900084830895FC01848191E0948395E59A9587
:1002A000F1F7000084830895FB014423C1F024E0AA
:1002B00030E080E090E061E040814068408343812D
:1002C00040FFFDCF638344815581840F951F2150EA
:1002D000310991F796958795969587950895808130
:1002E00080688083838180FFFDCF81E08383848168
:1002F00095810895FB014423D1F024E030E080E0B3
:1003000090E061E0408140684083438140FFFDCF41
:10031000638344815581840F951F2150310991F7E2
:1003200097FD039695958795959587950895808176
:1003300080688083838180FFFDCF81E08383848117
:1003400095810895AAECB1E092E09C93E82FF0E04B
:1003500084911C920895CF93DF93EC01C11582E044
:10036000D80759F480E20E94A20180930C0281E236
:100370000E94A20180930D0208C084E20E94A201A3
:100380008C8785E20E94A2018D87DF91CF9108952D
:10039000AC0190E0FA01E90FF11D2081222341F028
:1003A0008091A10885FFFCCF2093A0089F5FF2CF2A
:1003B0000895FB0184E08430B9F48091080684FD3F
:1003C00012C08091080685FD0CC08091080686FD4C
:1003D00006C09091080680E097FFEFCFECCF81E058
:1003E00003C083E001C082E09081911106C0823099
:1003F00019F581E08083F90104C0953021F4823041
:10040000D9F4108219C0913029F4823051F0813032
:1004100099F4F7CF923081F0943029F4823089F743
:1004200085E0808309C0FFE72AE186E0F1502040A3
:100430008040E1F700C000009FE7E8E3F1E0915061
:10044000E040F040E1F700C0000081E090E0089556
:100450002F923F924F925F926F927F928F929F92D4
:10046000AF92BF92CF92DF92EF92FF920F931F93C2
:10047000CF93DF93CDB7DEB7C25DDB40CDBFDEBF2C
:10048000C153D44F8883CF5CDB40C053D44F988393
:10049000C05DDB40C654D44F68837983CA5BDB40C0
:1004A000C454D44F48835983CC5BDB40C254D44FEF
:1004B00028833983CE5BDB40CA53D44F088319832A
:1004C000C65CDB40C054D44FE882F982C05CDB409C
:1004D000C653D44FC882CA5CDB40CA01805C994FC6
:1004E00081389C40A8F4C254D44F88819981CE5B56
:1004F000DB40805C994F81389C4050F4CB010A97D7
:100500008F31934228F4C70101978034964040F020
:100510000E94E5090E94DB096EE080E090E282C063
:10052000C454D44F28813981CC5BDB40B901330FEF
:10053000880B990B0E9409102AE030EE4EE95FE328
:100540000E9495100E94021120E030E040E055E446
:100550000E94F30E0E94D10F6B017C01C553D44F52
:1005600068837983CB5CDB40C254D44FE881F98146
:10057000CE5BDB40BF01FF0F880B990B0E94091077
:100580002AE030EE4EE95FE30E9495100E940211CE
:1005900020E030E040E055E40E94F30E0E94D10FCD
:1005A0002B013C01C353D44F68837983CD5CDB407E
:1005B000C054D44F28813981C05CDB40B901330F6E
:1005C000880B990B0E9409102AE030EE4EE95FE398
:1005D0000E9495100E9402110E94D80FC853D44F58
:1005E00068837983C85CDB40C201875293400E94D4
:1005F000A80ECA53D44F88819981C65CDB40880F0E
:10060000991F869F9001879F300D969F300D112472
:100610002D3D354060F00E94E5090E94DB0964E150
:100620008FE090E20E943D0A8FEF9FEF95C2C65483
:10063000D44FE881F981CA5BDB40BF010F2E000C6B
:10064000880B990B7F9714F10E9409109B01AC0154
:1006500060E070E080E89FE30E945F0F20E034E2FA
:1006600044EF59E40E94951020E030E44EE45FE34B
:100670000E9495100E9402110E94D80FCE53D44FB1
:1006800068837983C25CDB4081E021C00E9409104D
:100690009B01AC0160E070E080E89FE30E945F0F87
:1006A00020E034E244EF58E40E94951020E030E46A
:1006B0004EE45FE30E9495100E9402110E94D80F41
:1006C000CE53D44F68837983C25CDB4083E0809350
:1006D000000882E08093850684E080938506C653F7
:1006E000D44FF881CA5CDB4088E0F13019F4809384
:1006F000860602C08093850681E08093860660E0CE
:1007000070E080E293E00E94E4078823C1F340E0B8
:1007100050E0B60180E293E00E94DB072FE936E863
:1007200081E0215030408040E1F700C000008601A8
:1007300021E0C754D44F2883C95BDB40C12CD12CA6
:10074000412C512C212C312C612C712C60E070E05B
:1007500080E293E00E94E4078823C1F340E050E088
:10076000B80180E293E00E94DB071092200810920B
:100770002108C754D44F3881C95BDB40332361F073
:100780000F5F1F4FC353D44F88819981CD5CDB40ED
:10079000081719071CF512C00150110921E0C754B0
:1007A000D44F2883C95BDB40083233E01307F4F0F1
:1007B000C754D44F1882C95BDB4018C0C553D44F0F
:1007C00088819981CB5CDB40081719077CF0CA94BB
:1007D000CD2809F489C0C12CD12C08C0C754D44FEE
:1007E0001882C95BDB40CC24C394D12C7101EE0C80
:1007F000FF1CE1E0F0E0EC0FFD1FEE0DFF1D10828D
:1008000011827F018091200890912108CE53D44F0E
:1008100028813981C25CDB408217930708F040C011
:100820008091280280688093280280912B0280FDAD
:100830000DC08091200890912108CE53D44F28817B
:100840003981C25CDB408217930778F3F70120817E
:10085000318160E088E292E02115310519F40E94AF
:1008600027011AC0CF52D44F2883C15DDB40CE523E
:10087000D44F3883C25DDB400E942701CF52D44F52
:100880002881C15DDB40CE52D44F3881C25DDB4050
:10089000820F931F95958795F70180839183B2CF3F
:1008A0003FEF631A730AC853D44F88819981C85C9B
:1008B000DB406816790608F449CFF101EE0FFF1FFF
:1008C00021E030E02C0F3D1FE20FF31F808191816A
:1008D000480E591ECC53D44F28823982C45CDB4069
:1008E0003FEF231A330A30CFC201CC53D44F688173
:1008F0007981C45CDB400E94BC0E072E000C880B83
:10090000990B0E9409102B013C018E010F5F1F4FB4
:100910006801E12CF12CCC53D44F28813981C45C7F
:10092000DB402E153F0504F1F601619171916F01D5
:10093000072E000C880B990B0E9409109B01AC013B
:10094000C301B2010E94F20E9B01AC010E949510FE
:100950009B01AC01C501B4010E94F30E4B015C0187
:10096000FFEFEF1AFF0AD7CFB901330F880B990BAE
:100970000E9409109B01AC01C501B4010E945F0FE8
:100980000E94D80F0E9407100E942C1160937020C3
:1009900070937120809372209093732081E08093F4
:1009A000850682E08093860684E08093860688E050
:1009B0008093860660E070E080E293E00E94E407A6
:1009C0008823C1F340E050E060E078E080E293E00B
:1009D0000E94DB078091A10885FFFCCF81E0809316
:1009E000A008C153D44FE881CF5CDB40C053D44F43
:1009F000F881C05DDB40CF010F962091A10825FF53
:100A0000FCCF21912093A008E817F907B1F7809156
:100A1000A10885FFFCCFC554D44F3881CB5BDB40A8
:100A20003093A0088091A10885FFFCCFC654D44F15
:100A30008881CA5BDB408093A0088091A10885FF74
:100A4000FCCFC354D44F9881CD5BDB409093A0087A
:100A50008091A10885FFFCCFC454D44FE881CC5BC2
:100A6000DB40E093A0088091A10885FFFCCFC15432
:100A7000D44FF881CF5BDB40F093A0088091A108B0
:100A800085FFFCCFC254D44F2881CE5BDB4020933E
:100A9000A0088091A10885FFFCCFC953D44F3881AD
:100AA000C75CDB403093A0088091A10885FFFCCF94
:100AB000CA53D44F8881C65CDB408093A0088091E4
:100AC000A10885FFFCCFCF53D44F9881C15CDB4098
:100AD0009093A0088091A10885FFFCCFC054D44F0B
:100AE000E881C05CDB40E093A0088091A10885FF0D
:100AF000FCCFC653D44FF881CA5CDB40F093A0080A
:100B00008091A10885FFFCCF3092A0088091A108B8
:100B100085FFFCCF2092A00880E090E0821593052D
:100B200099F02091A10825FFFCCFF80120813181A7
:100B30000E5F1F4F3093A0083091A10835FFFCCF06
:100B40002093A0080196EACF8091A10885FFFCCFF1
:100B500081E08093A008C101CE52D44FCDBFDEBF4B
:100B6000DF91CF911F910F91FF90EF90DF90CF9089
:100B7000BF90AF909F908F907F906F905F904F90BD
:100B80003F902F9008951F920F920FB60F9211244D
:100B9000EF92FF920F931F932F933F934F935F9387
:100BA0006F937F938F939F93AF93BF93CF93DF9375
:100BB000EF93FF9383EB91E20E942E0C83EB91E283
:100BC0000E941A0C882309F42DC183EB91E20E9444
:100BD000220C853709F026C1C4E7D0E200E010E01E
:100BE000E12CF12C83EB91E20E942E0C83EB91E23D
:100BF0000E941A0C8823B1F383EB91E20E94220C2D
:100C0000FE01EE0DFF1D80832FEFE21AF20A3FE096
:100C1000E316F10439F783EB91E20E942E0C83EB8B
:100C200091E20E941A0C8823B1F383EB91E20E94B7
:100C3000220CF801EC58FF4D7F01878783EB91E28E
:100C40000E942E0C83EB91E20E941A0C8823B1F3D0
:100C500083EB91E20E94220C188A898B83EB91E24C
:100C60000E942E0C83EB91E20E941A0C8823B1F3B0
:100C700083EB91E20E94220C28893989282B288B4A
:100C8000398B83EB91E20E942E0C83EB91E20E9460
:100C90001A0C8823B1F383EB91E20E94220C1A8A8A
:100CA0008B8B83EB91E20E942E0C83EB91E20E94EE
:100CB0001A0C8823B1F383EB91E20E94220C2A895B
:100CC0003B89282B2A8B3B8B83EB91E20E942E0CD5
:100CD00083EB91E20E941A0C8823B1F383EB91E23B
:100CE0000E94220C1C8A8D8B83EB91E20E942E0CB9
:100CF00083EB91E20E941A0C8823B1F383EB91E21B
:100D00000E94220C2C893D89282B2C8B3D8B83EB58
:100D100091E20E942E0C83EB91E20E941A0C882330
:100D2000B1F383EB91E20E94220C1E8A8F8B83EB3E
:100D300091E20E942E0C83EB91E20E941A0C882310
:100D4000B1F383EB91E20E94220C2E893F89282B7C
:100D50002E8B3F8B83EB91E20E942E0C83EB91E272
:100D60000E941A0C8823B1F383EB91E20E94220CBB
:100D7000188E898F83EB91E20E942E0C83EB91E217
:100D80000E941A0C8823B1F383EB91E20E94220C9B
:100D9000288D398D282B288F398F83EB91E20E9483
:100DA0002E0C83EB91E20E941A0C8823B1F383EBA3
:100DB00091E20E94220C1A8E8B8F83EB91E20E94AB
:100DC0002E0C83EB91E20E941A0C8823B1F383EB83
:100DD00091E20E94220C2A8D3B8D282B2A8F3B8F7B
:100DE00083EB91E20E942E0C83EB91E20E941A0C9D
:100DF0008823B1F383EB91E20E94220CF701948DDA
:100E0000892B848FB801605070404DE150E0CE01D5
:100E10000E945014035E1F4F6D960F33F1E01F07C1
:100E200009F0DECE8091A10885FFFCCF8AE7809390
:100E3000A008E4E7F0E220E030E080E090E04091BC
:100E4000A10845FFFCCFDF01A80FB91F4C914093CB
:100E5000A00801968F30910591F78091A10885FF38
:100E6000FCCFD901AC58BF4D1F968C911F97809332
:100E7000A0088091A10885FFFCCF8089918990937B
:100E8000A0089091A10895FFFCCF8093A0088091C5
:100E9000A10885FFFCCF828993899093A008909147
:100EA000A10895FFFCCF8093A0088091A10885FF41
:100EB000FCCF848995899093A0089091A10895FF13
:100EC000FCCF8093A0088091A10885FFFCCF868984
:100ED00097899093A0089091A10895FFFCCF8093EB
:100EE000A0088091A10885FFFCCF808D918D909303
:100EF000A0089091A10895FFFCCF8093A008809155
:100F0000A10885FFFCCF828D938D9093A0089091CE
:100F1000A10895FFFCCF8093A0088091A10885FFD0
:100F2000FCCF5C968C918093A008235E3F4F7D960A
:100F30002F3381E0380709F080CF8091A10885FF29
:100F4000FCCF8AE78093A008FF91EF91DF91CF91CA
:100F5000BF91AF919F918F917F916F915F914F91D1
:100F60003F912F911F910F91FF90EF900F900FBE27
:100F70000F901F901895FC0181818F798183828168
:100F8000867E482B462B42838081827F85608083CA
:100F900008950F93FC0181818F7980648183828120
:100FA000867E482B462B4283202B248380818D60B4
:100FB00080830F910895FC01452B19F4608F718F88
:100FC0000895628F738F0895FC012581822F90E030
:100FD000672B19F421E030E002C022E030E0282342
:100FE000392381E0232B09F480E00895FC018181FD
:100FF0008C7F682B6183477043830895E4E4F6E0B7
:1010000080818F7D808380818F7B808380818F77BB
:101010008083E0E4F6E08081806280838081806468
:101020008083808180688083E0E6F6E08081807F35
:101030008083E4E6F6E080818F608083089580916C
:1010400044068F7D8093440680916006807F809364
:101050006006809164068F608093640680914406E8
:10106000806480934406809144068068809344069F
:1010700084E18A95F1F78091680683FF2AC0809108
:1010800044068F778093440684E18A95F1F784E1E2
:101090008A95F1F78091440680688093440684E144
:1010A0008A95F1F784E18A95F1F7809144068F776C
:1010B0008093440684E18A95F1F784E18A95F1F7FB
:1010C0008091440680688093440684E18A95F1F714
:1010D000CFCF809144068F77809344060895CF93B5
:1010E000DF931F92CDB7DEB789830E941F08E4E427
:1010F000F6E090819F7D908390819F7B908390818B
:101100009068908340E656E0DA019C919F609C9342
:10111000A4E6B6E09C918981282F22952F70907FBC
:10112000922B9C9394E19A95F1F794E19A95F1F7BB
:1011300090819F77908394E19A95F1F794E19A9545
:10114000F1F79081906890839C918F70907F892BAC
:101150008C9384E18A95F1F794E19A95F1F7808177
:101160008F778083FA018081807F80838C918F606C
:101170008C930F90DF91CF910895CF93DF93E4E4A8
:10118000F6E090819F7D908390819F7B90839081FA
:1011900090689083C0E6D6E098819F609883A4E62B
:1011A000B6E09C9182958F70907F892B8C9384E11F
:1011B0008A95F1F784E18A95F1F780818F778083B2
:1011C0008881807F88838C918F608C93DF91CF9111
:1011D00008950E941F08E0E6F6E08081807F80830A
:1011E000E4E6F6E080818F608083E4E4F6E08081CD
:1011F0008F7D80838081806480838081806880830C
:1012000084E18A95F1F784E18A95F1F7A8E6B6E0E2
:101210009C9180818F77808384E18A95F1F784E1C6
:101220008A95F1F780818068808384E18A95F1F75F
:1012300084E18A95F1F72C912F70892F8295807F18
:1012400090819F779083822B0895CF93DF931F9295
:10125000CDB7DEB789830E941F08E4E4F6E09081F1
:101260009062908390819F7B90839081906890831F
:1012700040E656E0DA019C919F609C93A4E6B6E0BC
:101280009C918981282F22952F70907F922B9C937F
:1012900094E19A95F1F794E19A95F1F790819F770F
:1012A000908394E19A95F1F794E19A95F1F7908102
:1012B000906890839C918F70907F892B8C9384E1B0
:1012C0008A95F1F794E19A95F1F780818F77808381
:1012D000FA018081807F80838C918F608C930F9046
:1012E000DF91CF9108950E941F08E0E6F6E080812B
:1012F000807F8083E4E6F6E080818F608083E4E491
:10130000F6E0808180628083808180648083808138
:101310008068808384E18A95F1F784E18A95F1F70A
:10132000A8E6B6E09C9180818F77808384E18A95DE
:10133000F1F784E18A95F1F780818068808384E108
:101340008A95F1F784E18A95F1F72C912F70892F16
:1013500082958F7090819F779083822B08950E9451
:10136000FE0780E30E94BD0887EE93E00197F1F746
:1013700000C0000080E30E94BD0880E30E94BD0819
:1013800080E20E94BD0889E20E946F0885E10E9408
:101390006F0882E70E946F0885E50E946F088EE65D
:1013A0000E946F088CE00E946F0881E00E946F0825
:1013B00086E00C946F0882E00E946F0887EE93E04D
:1013C0000197F1F700C00000089581E00E946F08C6
:1013D00087EE93E00197F1F700C0000008956230B6
:1013E00031F0633031F0613029F4805F03C0805EFA
:1013F00001C08C5A80680C946F08AF92BF92CF9254
:10140000DF92FF920F931F93CF93DF931F92CDB77D
:10141000DEB76C01062FF42E0E94E908982F9F7703
:10142000FF0CFF0CFF0C000F000F000FA12CB12CC4
:1014300010E08A2D8F0D806499830E946F08F5015A
:10144000E00FF11FEC0DFD1D84910E9425098FEF27
:10145000A81AB80A998188E0A816B10451F7892F13
:1014600080680F90DF91CF911F910F91FF90DF90D7
:10147000CF90BF90AF900C946F08EF92FF921F93A4
:10148000CF93DF931F92CDB7DEB7009771F0182F7F
:101490007C018E2D811B861740F4F70181917F011D
:1014A00069830E9425096981F4CF0F90DF91CF9164
:1014B0001F91FF90EF9008958F929F92AF92BF92ED
:1014C000CF92DF92EF92FF921F93CF93DF93142F6F
:1014D00046E0489F9001499F300D1124129FC001A2
:1014E000139F900D11240E94A80E6B01E12CF12C8A
:1014F000C701B60126E030E040E050E00E94D00E87
:10150000D62F812C912C5401C0E0C117E9F0D501F0
:10151000C4010596A11DB11DC816D906EA06FB0631
:1015200038F4C814D904EA04FB0420F480E003C0B2
:1015300085E001C08D2F0E942509CF5F86E0880ECF
:10154000911CA11CB11CE1CFDF91CF911F91FF90A5
:10155000EF90DF90CF90BF90AF909F908F900895C5
:10156000AF92CF92EF920F93FC016083718342831D
:1015700053831482C11002C090E001C090E8211191
:1015800002C080E001C080E20065A02A9A29892B70
:10159000DB018C93A081B1811196EC9215821682A9
:1015A0000280F381E02D80EA81830F91EF90CF904C
:1015B000AF900895EF920F93FC0160837183428393
:1015C0005383211102C080E401C080E6082BDB01B7
:1015D0000C93A081B1811196EC920280F381E02DF1
:1015E00080E481830F91EF900895EF920F931F9302
:1015F000FC0100831183E2826383748345835683F5
:101600002783108611861F910F91EF900895CF9335
:10161000DF93FC01A581B68118968C911897C08143
:10162000D181988194FD03C091E0948329C09B816E
:1016300015960D90BC91A02DA80FB11D9C938F5FA6
:10164000A581B68117969C911797891760F4139618
:101650000D90BC91A02DA80FB11D9C91A081B181CE
:1016600013969C930DC012969C9112970D90BC916D
:10167000A02D15969C93A581B68191E019969C9317
:101680000580F681E02D8087DF91CF910895CF937B
:10169000DF93FC01DB018481C581D681209751F065
:1016A0009985992331F1882329F0C281D3818C81D6
:1016B00084FF21C0A583B68319961C9219971482C2
:1016C00012968C9112970D90BC91A02D16968C932A
:1016D000A581B68118961C92A581B68113960D90AE
:1016E000BC91A02D8C910190F081E02D838380E04E
:1016F00003C082E001C081E0DF91CF910895DC0159
:10170000ED91FC9111976383ED91FC91828187FFAC
:10171000FDCF83810895CF93DF93FC01DB01109708
:1017200009F443C06583768312963C911297CD915C
:10173000DC911197209709F03E8317962C9180E059
:1017400090E0A581B6818217F8F413960D90BC91B4
:10175000A02DA80FB91F4C91A081B18113964C9375
:10176000A081B18112964C91129747FFFBCF13963F
:101770004C91A581B68115960D90BC91A02DA80F16
:10178000B91F4C930196DDCF0D90BC91A02D109701
:1017900011F015963C93A581B68118962C9305807F
:1017A000F681E02D81E0818701C080E0DF91CF915B
:1017B0000895FC01608371834283538315861486E8
:1017C000178616860895FC01628373830895FC01D1
:1017D000968527859F5F937081E0921301C080E01A
:1017E00008950F931F93CF93DF931F92CDB7DEB76A
:1017F0008C0169830E94E70B69818823A9F0D801D5
:101800001E969C911E97F801E90FF11D60879F5F5E
:101810009370F80196870190F081E02D93819C7F71
:1018200012962C91922B93830F90DF91CF911F9161
:101830000F910895FC012485958581E0291301C04D
:1018400080E00895FC018585DF01A80FB11D149685
:101850008C9195859F5F937095870895FC01848591
:101860008F5F83702585A081B1819C91821749F09B
:101870002485DF01A20FB11D14969C93848781E01B
:10188000089580E00895CF93DF93FC0187859685C6
:10189000A081B181981307C013968C9113978C7F08
:1018A00013968C930AC08785EF01C80FD11D8885D8
:1018B0008C9387858F5F83708787DF91CF910895A1
:1018C000FC01848170FF02C0816001C08E7F84832F
:1018D00060830895FC01848180FF04C0808190E0D2
:1018E00091600895808190E00895CF93DF93CDB704
:1018F000DEB76397CDBFDEBF80E1809302068093A1
:10190000140690E2909302068093150690E490935B
:1019100002068093160690E89093020680931706BD
:1019200032E03093810621E02093810694E0909389
:10193000810688E080938106309386062093850691
:10194000909386068093860600E010E020E030E069
:1019500040E068E070E080E293E00E94C90761E047
:1019600070E080E293E00E94E4078823C1F341E045
:1019700050E060E078E080E293E00E94DB0760E006
:1019800070E080E293E00E94E4078823C1F340E026
:1019900050E060E078E080E293E00E94DB0788E0BE
:1019A0008093410684E08093420641E050E060EA83
:1019B00078E083EB91E20E94D90B83E08093A50845
:1019C0008091A3088F7C80618093A3088CE0809332
:1019D000A6081092A7088091A40880618093A408AB
:1019E0008091A40888608093A40880E092E00E941F
:1019F000AB0180910102897E806180930102809118
:101A00000402887F816080930402809102028F7CAF
:101A100080618093020280912002807E82608093A8
:101A2000200280912802807E82608093280211E04B
:101A30001093210281E1809329028091000281604C
:101A4000809300020E94AF090E94AF090E94E5093D
:101A50000E94DB096CE084E290E20E943D0A2FE7DD
:101A60008AE196E0215080409040E1F700C00000FC
:101A70001B8A1A8B198A188A1F8600E010E0B801A9
:101A8000605070404DE150E0C8018C589F4D0E945D
:101A90004414035E1F4F0F3321E0120781F780913A
:101AA000A20081608093A200789461E370E281E9F2
:101AB00090E20E949C1181E08093A02020E931E017
:101AC0002093A1203093A2201092A3201092A42052
:101AD00028EE33E02093A5203093A62021E030E0CB
:101AE0002093A7203093A82024E030E02093A92061
:101AF0003093AA201092AB201092AC208093AD209E
:101B000000E010E0B801605070404DE150E0C801C5
:101B10008C589F4D0E945014035E1F4F0F3381E07D
:101B2000180781F7CE0101965C019B89911126C0AF
:101B30000E94E5090E94DB0961E081E490E20E94D5
:101B40003D0A6FE081E990E20E943D0ACE010D96C8
:101B50006C0102967C018E01005F1F4F9E012F5E7B
:101B60003F4FAE014E5E5F4FBE016D5E7F4F84E71B
:101B700090E20E94D901019749F7D7CF9530D9F566
:101B80000E94E5090E94DB0968E083E490E20E947C
:101B90003D0A809173208F93809172208F93809162
:101BA00071208F93809170208F938CE490E29F93AB
:101BB0008F93BF92AF920E94A31164E0C5010E946F
:101BC0003D0ACDBFDEBFCE010D966C0102967C01B1
:101BD0008E01005F1F4F9E012F5E3F4FAE014E5E94
:101BE0005F4FBE016D5E7F4F84E790E20E94D90196
:101BF000019749F79ACF9130D1F50E94E5090E94EB
:101C0000DB098A892DE1829FC00111246FE08C5885
:101C10009F4D0E943D0A61E080E00E94EF098989A2
:101C200061E0811103C081E490E202C08FE390E2A1
:101C30000E943D0A65E080E590E20E943D0ACE01E7
:101C40000D966C0102967C018E01005F1F4F9E0174
:101C50002F5E3F4FAE014E5E5F4FBE016D5E7F4F08
:101C600084E790E20E94D901019749F75ECF923054
:101C7000E9F50E94E5090E94DB098A891DE1189FA8
:101C8000C00111246FE08C589F4D0E943D0A61E015
:101C900080E00E94EF096AE086E590E20E943D0A3A
:101CA000EA891E9FF0011124EC58FF4DE08CF18C65
:101CB0000689178924893589428953896089718900
:101CC000C48CCF010E9428028D879E87019659F40B
:101CD0008FE79AE126E0815090402040E1F700C074
:101CE000000083E001C084E08B8B1FCF943009F0AB
:101CF0001CCF0E94E5090E94DB098A892DE1829FA1
:101D0000C00111246FE08C589F4D0E943D0A61E094
:101D100080E00E94EF096DE082E690E20E943D0AB9
:101D2000CE010D966C0102967C018E01005F1F4F63
:101D30009E012F5E3F4FAE014E5E5F4FBE016D5E56
:101D40007F4F84E790E20E94D901019749F7EDCED9
:101D5000AA1BBB1B51E107C0AA1FBB1FA617B707D1
:101D600010F0A61BB70B881F991F5A95A9F78095ED
:101D70009095BC01CD01089597FB072E16F40094B1
:101D800007D077FD09D00E94A80E07FC05D03EF4CD
:101D9000909581959F4F0895709561957F4F089517
:101DA000A1E21A2EAA1BBB1BFD010DC0AA1FBB1F5F
:101DB000EE1FFF1FA217B307E407F50720F0A21BD1
:101DC000B30BE40BF50B661F771F881F991F1A943E
:101DD00069F760957095809590959B01AC01BD0168
:101DE000CF0108955058BB27AA270E940A0F0C94D0
:101DF0005B100E944D1038F00E94541020F039F40E
:101E00009F3F19F426F40C944A100EF4E095E7FB7A
:101E10000C944410E92F0E946C1058F3BA17620713
:101E200073078407950720F079F4A6F50C948E10BB
:101E30000EF4E0950B2EBA2FA02D0B01B9019001E5
:101E40000C01CA01A0011124FF27591B99F0593F29
:101E500050F4503E68F11A16F040A22F232F342F71
:101E60004427585FF3CF469537952795A795F040BF
:101E70005395C9F77EF41F16BA0B620B730B840BD4
:101E8000BAF09150A1F0FF0FBB1F661F771F881F8C
:101E9000C2F70EC0BA0F621F731F841F48F48795E4
:101EA00077956795B795F7959E3F08F0B0CF9395D6
:101EB000880F08F09927EE0F9795879508950E944F
:101EC000730F0C945B100E94541058F00E944D1038
:101ED00040F029F45F3F29F00C94441051110C9408
:101EE0008F100C944A100E946C1068F39923B1F380
:101EF000552391F3951B550BBB27AA276217730730
:101F0000840738F09F5F5F4F220F331F441FAA1FC3
:101F1000A9F335D00E2E3AF0E0E832D0915050407F
:101F2000E695001CCAF72BD0FE2F29D0660F771F2D
:101F3000881FBB1F261737074807AB07B0E809F013
:101F4000BB0B802DBF01FF2793585F4F3AF09E3F98
:101F5000510578F00C9444100C948F105F3FE4F31B
:101F6000983ED4F3869577956795B795F7959F5FDB
:101F7000C9F7880F911D9695879597F90895E1E027
:101F8000660F771F881FBB1F621773078407BA0786
:101F900020F0621B730B840BBA0BEE1F88F7E095E1
:101FA00008950E94D80F6894B1110C948F10089571
:101FB0000E94741088F09F5798F0B92F9927B75155
:101FC000B0F0E1F0660F771F881F991F1AF0BA95DD
:101FD000C9F714C0B13091F00E948E10B1E008959D
:101FE0000C948E10672F782F8827B85F39F0B93F8F
:101FF000CCF3869577956795B395D9F73EF4909590
:102000008095709561957F4F8F4F9F4F0895E8940D
:1020100009C097FB3EF490958095709561957F4F30
:102020008F4F9F4F9923A9F0F92F96E9BB279395DE
:10203000F695879577956795B795F111F8CFFAF4EE
:10204000BB0F11F460FF1BC06F5F7F4F8F4F9F4F1F
:1020500016C0882311F096E911C0772321F09EE87D
:10206000872F762F05C0662371F096E8862F70E0E3
:1020700060E02AF09A95660F771F881FDAF7880FBD
:102080009695879597F9089597F99F6780E870E08E
:1020900060E008959FEF80EC089500240A941616DE
:1020A000170618060906089500240A941216130646
:1020B000140605060895092E0394000C11F48823D4
:1020C00052F0BB0F40F4BF2B11F460FF04C06F5FF0
:1020D0007F4F8F4F9F4F089557FD9058440F551FC6
:1020E00059F05F3F71F04795880F97FB991F61F09A
:1020F0009F3F79F087950895121613061406551F11
:10210000F2CF4695F1DF08C0161617061806991F7C
:10211000F1CF86957105610508940895E894BB2771
:1021200066277727CB0197F908950E94A8100C9491
:102130005B100E944D1038F00E94541020F095233F
:1021400011F00C9444100C944A1011240C948F102C
:102150000E946C1070F3959FC1F3950F50E0551FCE
:10216000629FF001729FBB27F00DB11D639FAA27EC
:10217000F00DB11DAA1F649F6627B00DA11D661F3B
:10218000829F2227B00DA11D621F739FB00DA11D5C
:10219000621F839FA00D611D221F749F3327A00D16
:1021A000611D231F849F600D211D822F762F6A2FB2
:1021B00011249F5750409AF0F1F088234AF0EE0F17
:1021C000FF1FBB1F661F771F881F91505040A9F744
:1021D0009E3F510580F00C9444100C948F105F3F8B
:1021E000E4F3983ED4F3869577956795B795F79580
:1021F000E7959F5FC1F7FE2B880F911D96958795F8
:1022000097F908950E947410E8F09E37E8F0963927
:10221000B8F49E3848F4672F782F8827985FF9CF55
:1022200086957795679593959539D0F3B62FB170CC
:102230006B0F711D811D20F4879577956795939598
:102240000C946C110C9487110C948F1019F416F4E3
:102250000C944A100C9487110E947410B8F39923BF
:10226000C9F3B6F39F57550B87FF0E9495110024C1
:10227000A0E640EA900180585695979528F4805C36
:10228000660F771F881F20F026173707480730F49E
:10229000621B730B840B202931294A2BA6951794B6
:1022A0000794202531254A2758F7660F771F881F86
:1022B00020F026173707480730F4620B730B840BA6
:1022C000200D311D411DA09581F7B901842F915832
:1022D000880F969587950895882371F4772321F0C8
:1022E0009850872B762F07C0662311F499270DC0CD
:1022F0009051862B70E060E02AF09A95660F771F68
:10230000881FDAF7880F9695879597F908959F3F6C
:1023100031F0915020F4879577956795B795880FA0
:10232000911D9695879597F9089591505040660FA5
:10233000771F881FD2F70895FB01DC0101900D92F1
:102340000020E1F70895AEE0B0E0E9EAF1E10C9495
:102350008B140D891E8986E08C8309831A838FEF85
:102360009FE78D839E83AE01475E5F4F6F89788DB7
:10237000CE0101960E94C6112F813885F801E20F27
:10238000F31F10822E96E4E00C94A414ACE0B0E0AD
:10239000ECECF1E10C947D147C016B018A01FC01F1
:1023A00016821782838181FFBDC1CE0101964C0147
:1023B000F7019381F60193FD859193FF81916F0160
:1023C000882309F4ABC1853239F493FD859193FFDD
:1023D00081916F01853229F4B70190E00E94AE131C
:1023E000E7CF512C312C20E02032A0F48B3269F061
:1023F00030F4803259F0833269F420612CC08D3280
:1024000039F0803339F4216026C02260246023C073
:10241000286021C027FD27C030ED380F3A3078F40E
:1024200026FF06C0FAE05F9E300D1124532E13C024
:102430008AE0389E300D1124332E20620CC08E327B
:1024400021F426FD6BC1206406C08C3611F420688F
:1024500002C0883641F4F60193FD859193FF819186
:102460006F018111C1CF982F9F7D9554933028F42F
:102470000C5F1F4FFFE3F9830DC0833631F08337C4
:1024800071F0833509F05BC022C0F8018081898337
:102490000E5F1F4F44244394512C540115C0380142
:1024A000F2E06F0E711CF801A080B18026FF03C01E
:1024B000652D70E002C06FEF7FEFC5012C870E9491
:1024C000A3132C0183012C852F77222E17C03801EE
:1024D000F2E06F0E711CF801A080B18026FF03C0EE
:1024E000652D70E002C06FEF7FEFC5012C870E9461
:1024F00098132C012C852068222E830123FC1BC0FD
:10250000832D90E048165906B0F4B70180E290E0C0
:102510000E94AE133A94F4CFF50127FC859127FE73
:1025200081915F01B70190E00E94AE1331103A949F
:10253000F1E04F1A51084114510471F7E5C0843697
:1025400011F0893639F5F80127FF07C060817181E4
:10255000828193810C5F1F4F08C060817181072EBB
:10256000000C880B990B0E5F1F4F2F76722E97FF72
:1025700009C090958095709561957F4F8F4F9F4FC3
:102580002068722E2AE030E0A4010E94E613A82EF3
:10259000A81844C0853729F42F7EB22E2AE030E0F7
:1025A00025C0F22FF97FBF2E8F36C1F018F4883581
:1025B00079F0B4C0803719F0883721F0AFC02F2FE1
:1025C0002061B22EB4FE0DC08B2D8460B82E09C0E0
:1025D00024FF0AC09F2F9660B92E06C028E030E085
:1025E00005C020E130E002C020E132E0F801B7FE92
:1025F00007C060817181828193810C5F1F4F06C08B
:102600006081718180E090E00E5F1F4FA4010E9405
:10261000E613A82EA818FB2DFF777F2E76FE0BC0A1
:10262000372D3E7FA51450F474FE0AC072FC08C01A
:10263000372D3E7E05C0BA2C372D03C0BA2C01C001
:10264000B52C34FF0DC0FE01EA0DF11D80818033F1
:1026500011F4397E09C032FF06C0B394B39404C0AC
:10266000832F867809F0B39433FD13C030FF06C082
:102670005A2CB31418F4530C5B18B32CB31468F42D
:10268000B70180E290E03C870E94AE13B3943C8592
:10269000F5CFB31410F43B1801C0312C34FF12C035
:1026A000B70180E390E03C870E94AE133C8532FF87
:1026B00017C031FD03C088E790E002C088E590E0D4
:1026C000B7010CC0832F867859F031FF02C08BE22E
:1026D00001C080E237FD8DE2B70190E00E94AE13A9
:1026E000A51438F4B70180E390E00E94AE135A9429
:1026F000F7CFAA94F401EA0DF11D8081B70190E0B3
:102700000E94AE13A110F5CF332009F451CEB701CA
:1027100080E290E00E94AE133A94F6CFF7018681F2
:10272000978102C08FEF9FEF2C96E2E10C949614F4
:10273000FC010590615070400110D8F7809590958C
:102740008E0F9F1F0895FC01615070400190011091
:10275000D8F7809590958E0F9F1F08950F931F9324
:10276000CF93DF93FB01238121FD03C08FEF9FEF08
:1027700028C022FF16C04681578124813581421727
:10278000530744F4A081B1819D012F5F3F4F208307
:1027900031838C93268137812F5F3F4F2683378388
:1027A00010C0EB01092F182F0084F185E02D099549
:1027B000892BE1F68E819F8101968E839F83812FE5
:1027C000902FDF91CF911F910F910895FA01AA27C1
:1027D000283051F1203181F1E8946F936E7F6E5F64
:1027E0007F4F8F4F9F4FAF4FB1E03ED0B4E03CD012
:1027F000670F781F891F9A1FA11D680F791F8A1FF5
:10280000911DA11D6A0F711D811D911DA11D20D05B
:1028100009F468943F912AE0269F11243019305D15
:102820003193DEF6CF010895462F4770405D419306
:10283000B3E00FD0C9F7F6CF462F4F70405D4A3353
:1028400018F0495D31FD4052419302D0A9F7EACF1B
:10285000B4E0A6959795879577956795BA95C9F74A
:1028600000976105710508959B01AC010A2E06943D
:102870005795479537952795BA95C9F7620F731FF6
:10288000841F951FA01D0895E0ECF1E0A785A7FD2A
:10289000FDCFA485A860A4876050704F0C94AE143F
:1028A000DC01CB0103C02D910E945B1441505040CC
:1028B000D0F70895262FE0ECF1E0378537FDFDCF06
:1028C0003485377F3487378531FF09C036E3328757
:1028D00038ED34BF31E03387378537FDFDCF33E343
:1028E0003287808391831282248325E3228728ED17
:1028F00031E024BF3387019608952F923F924F9283
:102900005F926F927F928F929F92AF92BF92CF927F
:10291000DF92EF92FF920F931F93CF93DF93CDB788
:10292000DEB7CA1BDB0BCDBFDEBF09942A8839880E
:1029300048885F846E847D848C849B84AA84B98457
:10294000C884DF80EE80FD800C811B81AA81B98163
:10295000CE0FD11DCDBFDEBFED010895FB01DC011F
:1029600002C001900D9241505040D8F70895F8945C
:02297000FFCF97
:102972006F757473696465206C696D697473007432
:102982006F6F206D616E79206461746120706F6970
:102992006E74730043444143204B6F6C6B617461EE
:1029A20000435620233120202020202020202020D8
:1029B200007E005374446576203D20002534640077
:1029C2007374617274002074657374696E672E2E5D
:1029D2002E005465737420436F6D706C65746500CE
:00000001FF
