:100000000C9400010C941D010C941D010C941D0115
:100010000C941D010C941D010C941D010C941D01E8
:100020000C941D010C941D010C941D010C941D01D8
:100030000C941D010C941D010C941D010C941D01C8
:100040000C941D010C941D010C941D010C941D01B8
:100050000C941D010C941D010C941D010C941D01A8
:100060000C941D010C946F060C941D010C941D0141
:100070000C941D010C941D010C941D010C941D0188
:100080000C941D010C941D010C941D010C941D0178
:100090000C941D010C941D010C941D010C941D0168
:1000A0000C941D010C941D010C941D010C941D0158
:1000B0000C941D010C941D010C941D010C941D0148
:1000C0000C941D010C941D010C941D010C941D0138
:1000D0000C941D010C941D010C941D010C941D0128
:1000E0000C941D010C941D010C941D010C941D0118
:1000F0000C941D010C941D010C941D010C941D0108
:100100000C941D010C941D010C941D010C941D01F7
:100110000C941D010C941D010C941D010C941D01E7
:100120000C941D010C941D010C941D010C941D01D7
:100130000C941D010C941D010C941D010C941D01C7
:100140000C941D010C941D010C941D010C941D01B7
:100150000C941D010C941D010C941D010C941D01A7
:100160000C941D010C941D010C941D010C941D0197
:100170000C941D010C941D01001F000000001F00C5
:10018000001F101010101F00001F181818181F0053
:10019000001F1C1C1C1C1F00001F1E1E1E1E1F00FB
:1001A000001F1F1F1F1F1F0003070F1F0F07030044
:1001B000001F1F1F1F1F1F001B1B1B1B1B1B1B00C8
:1001C000181C1E1F1E1C18000004040E0E1F1F000A
:1001D000001F1F0E0E0404000000000000000000BD
:1001E000000E1915130E0000000E1515150E000057
:1001F000000E1315190E0000000E111F110E000045
:1002000011241FBECFEFCDBFDFE2DEBF10E2A0E0C2
:10021000B0E2E4E4F6E202C005900D92A43BB1071F
:10022000D9F722E2A4EBB0E201C01D92A131B207DE
:10023000E1F70E94210D0C9420130C94000021E0A2
:10024000FC01238384819581861B9109089521E017
:10025000FC01238384819581861B910967FD939519
:10026000089521E0FC01238384819581089521E094
:10027000FC0123838481089521E0FC01238385818F
:100280000895FC01848114829AE29A95F1F700C0E6
:1002900084830895FC01848191E0948395E59A9587
:1002A000F1F7000084830895FB014423C1F024E0AA
:1002B00030E080E090E061E040814068408343812D
:1002C00040FFFDCF638344815581840F951F2150EA
:1002D000310991F796958795969587950895808130
:1002E00080688083838180FFFDCF81E08383848168
:1002F00095810895FB014423D1F024E030E080E0B3
:1003000090E061E0408140684083438140FFFDCF41
:10031000638344815581840F951F2150310991F7E2
:1003200097FD039695958795959587950895808176
:1003300080688083838180FFFDCF81E08383848117
:1003400095810895AAECB1E092E09C93E82FF0E04B
:1003500084911C920895CF93DF93EC01C11582E044
:10036000D80759F480E20E94A20180930C0281E236
:100370000E94A20180930D0208C084E20E94A201A3
:100380008C8785E20E94A2018D87DF91CF9108952D
:100390000F931F93CF93DF93FB0197FF09C02DE2CB
:1003A0002083CC27DD27C81BD90B21E030E003C018
:1003B000EC0120E030E00AE010E0009739F02F5F18
:1003C0003F4FB8010E94CE0FCB01F7CFE20FF31FD2
:1003D00010820AE010E0209741F0CE01B8010E949F
:1003E000CE0FEB01805D8293F6CFC901DF91CF91F3
:1003F0001F910F910895AC0190E0FA01E90FF11DF2
:100400002081222341F08091A10885FFFCCF209319
:10041000A0089F5FF2CF0895FB0184E08430B9F417
:100420008091080684FD12C08091080685FD0CC0ED
:100430008091080686FD06C09091080680E097FF2F
:10044000EFCFECCF81E003C083E001C082E0908178
:10045000911106C0823009F581E08083F90104C062
:10046000953021F48130C9F4108217C0913019F40D
:100470008230C1F707C0923081F0943029F4823085
:1004800099F785E0808309C0FFE72AE186E0F15013
:1004900020408040E1F700C000009FE7E8E3F1E082
:1004A0009150E040F040E1F700C0000081E090E0B2
:1004B00008952F923F924F925F926F927F928F9208
:1004C0009F92AF92BF92CF92DF92EF92FF920F93E3
:1004D0001F93CF93DF93CDB7DEB7CF5CDB40CDBFAB
:1004E000DEBFC453D44F8883CC5CDB40C353D44FAE
:1004F0009883CD5CDB401B01C554D44F488359839E
:10050000CB5BDB405901CD53D44F08831983C35CC7
:10051000DB40C154D44FE882F982CF5BDB40C55346
:10052000D44FC882CB5CDB40CA01805C994F8138D4
:100530009C4080F4C501805C994F81389C4050F408
:10054000CB010A978F31934228F4C7010197803479
:10055000964040F00E94910A0E94870A6EE080E077
:1005600090E2BBC0C554D44FE881F981CB5BDB403E
:10057000BF010F2E000C880B990B25010B2C000CD2
:100580006608770895012E1B3F0B12161306A4F57B
:100590000E9420112AE030EE4EE95FE30E94D01164
:1005A0000E943D1220E030E040E055E40E9405103A
:1005B0000E94E8106B01C301B2010E9420112AE0E1
:1005C00030EE4EE95FE30E94D0110E943D1220E020
:1005D00030E040E055E40E9405100E94E810C3544A
:1005E000D44F68837983CD5BDB40F1E0C754D44FAF
:1005F000F883C95BDB4032C00E9420112AE030EE54
:100600004EE95FE30E94D0110E943D1220E030E0ED
:1006100040E055E40E9405100E94E810C354D44FF6
:1006200068837983CD5BDB40C301B2010E94201156
:100630002AE030EE4EE95FE30E94D0110E943D12A5
:1006400020E030E040E055E40E9405100E94E810F0
:100650006B01C754D44F1882C95BDB40CD53D44FD4
:1006600068807980C35CDB40660C771CC154D44F32
:1006700028813981CF5BDB40B901330F880B990B9F
:100680000E9420112AE030EE4EE95FE30E94D01173
:100690000E943D120E94EF10C753D44F68837983A4
:1006A000C95CDB40C354D44F88819981CD5BDB406A
:1006B0008C199D090E94BA0F669EC001679E900D1D
:1006C000769E900D11248D3D954060F00E94910A18
:1006D0000E94870A64E18FE090E20E94E90A8FEFAE
:1006E0009FEFE6C2B101032C000C880B990B4FE180
:1006F0002416310414F10E9420119B01AC0160E02A
:1007000070E080E89FE30E94761020E034E244EF3E
:1007100059E40E94D01120E030E44EE45FE30E94EF
:10072000D0110E943D120E94EF10CF53D44F688326
:100730007983C15CDB4081E021C00E9420119B01D4
:10074000AC0160E070E080E89FE30E94761020E05A
:1007500034E244EF58E40E94D01120E030E44EE44B
:100760005FE30E94D0110E943D120E94EF10CF5310
:10077000D44F68837983C15CDB4083E080930008B9
:10078000C754D44F5881C95BDB40511107C0C354D3
:10079000D44F08811981CD5BDB4001C0860182E026
:1007A0008093850684E080938506C553D44F888165
:1007B000CB5CDB40813021F488E08093860603C067
:1007C00088E08093850681E08093860660E070E093
:1007D00080E293E00E9490088823C1F340E050E05B
:1007E000B80180E293E00E9487089FE9E6E8F1E023
:1007F0009150E040F040E1F700C00000812C912CC6
:10080000412C512C60E070E080E293E00E9490085F
:100810008823C1F340E050E0B80180E293E00E94F9
:1008200087081092200810922108C754D44F2881BD
:10083000C95BDB40222361F00F5F1F4FC354D44FCD
:1008400048815981CD5BDB40041715073CF41CC07F
:1008500001501109C016D10664F416C051E0651AA2
:10086000710809F47CC0C754D44F1882C95BDB40BF
:100870000BC081E0681A710809F471C091E0C75497
:10088000D44F9883C95BDB407401EE0CFF1CE1E0A0
:10089000F0E0EC0FFD1FEE0DFF1D108211827F01B5
:1008A0008091200890912108CF53D44F288139811D
:1008B000C15CDB408217930708F040C0809128029A
:1008C00080688093280280912B0280FD0DC080916A
:1008D000200890912108CF53D44F28813981C15CE1
:1008E000DB408217930778F3F7012081318160E0C4
:1008F00088E292E02115310519F40E9427011AC0FF
:10090000C253D44F2883CE5CDB40C153D44F3883CD
:10091000CF5CDB400E942701C253D44F2881CE5CBC
:10092000DB40C153D44F3881CF5CDB40820F931F33
:1009300095958795F70180839183B2CF3FEF431A56
:10094000530AC753D44F48815981C95CDB404416D0
:10095000550608F457CF5FEF851A950A51CF81E00D
:100960008093850682E08093860684E080938606E5
:1009700088E08093860660E070E080E293E00E9469
:1009800090088823C1F340E050E060E078E080E226
:1009900093E00E9487088091A10885FFFCCF81E049
:1009A0008093A008C453D44FE881CC5CDB40C35390
:1009B000D44FF881CD5CDB40CF010F962091A10888
:1009C00025FFFCCF21912093A008E817F907B1F784
:1009D0008091A10885FFFCCF3092A0088091A108EA
:1009E00085FFFCCF2092A0088091A10885FFFCCF55
:1009F000C454D44F8881CC5BDB408093A0088091A5
:100A0000A10885FFFCCFC554D44F9881CB5BDB4058
:100A10009093A0088091A10885FFFCCFB092A00818
:100A20008091A10885FFFCCFA092A0088091A10829
:100A300085FFFCCFCC53D44FE881C45CDB40E0930E
:100A4000A0088091A10885FFFCCFCD53D44FF88139
:100A5000C35CDB40F093A0088091A10885FFFCCF28
:100A6000C054D44F2881C05CDB402093A008809103
:100A7000A10885FFFCCFC154D44F3881CF5BDB4048
:100A80003093A0088091A10885FFFCCFC553D44FB7
:100A90004881CB5CDB404093A0088091A10885FF92
:100AA000FCCF9092A0088091A10885FFFCCF809296
:100AB000A008840116950795F801EE0FFF1F81E04D
:100AC00090E08C0F9D1FE80FF91F60817181072E48
:100AD000000C880B990B0E9420113B017C01CB017B
:100AE000D70180930D2290930E22A0930F22B093F2
:100AF0001022FE013196C554D44FE883F983CB5BB5
:100B0000DB40C754D44F18821982C95BDB40C12C2B
:100B1000D12CC814D90409F444C08091A10885FFE0
:100B2000FCCFC554D44FE881F981CB5BDB40A19069
:100B3000B190C554D44FE883F983CB5BDB40B092CE
:100B4000A0088091A10885FFFCCFA092A008C01644
:100B5000D10618F1B5010B2C000C880B990B0E94E3
:100B600020111B012C019B01AC01B301C7010E94A4
:100B7000711087FD02C013012701C754D44F28818B
:100B80003981C95BDB402A0D3B1DC754D44F2883F4
:100B90003983C95BDB40310172013FEFC31AD30ACD
:100BA000B8CFC301D70180930D2290930E22A0935A
:100BB0000F22B0931022C754D44F88819981C95B0A
:100BC000DB40B8010E94BA0F80E090E00E941E1145
:100BD0002B013C016093092270930A2280930B221F
:100BE00090930C2278015801AA0CBB1CC12CD12C6B
:100BF0008E149F04B0F1F601EA0DFB1D41E050E0B8
:100C00004C0F5D1FE40FF51F60817181072E000CF2
:100C1000880B990B0E9420119B01AC01C301B2010A
:100C20000E9404109B01AC010E94D0119B01AC01F9
:100C3000CB53D44F688179818A819B81C55CDB402D
:100C40000E940510CB53D44F688379838A839B839A
:100C5000C55CDB405FEFE51AF50A82E0C80ED11CE7
:100C6000C7CFB80180E090E00E941E119B01AC014B
:100C7000CB53D44F688179818A819B81C55CDB40ED
:100C80000E9476100E94EF100E941E110E946712AF
:100C90006093B6207093B7208093B8209093B920CA
:100CA0008091A10885FFFCCF81E08093A008C4015A
:100CB000C153D44FCDBFDEBFDF91CF911F910F91B4
:100CC000FF90EF90DF90CF90BF90AF909F908F906C
:100CD0007F906F905F904F903F902F9008951F925C
:100CE0000F920FB60F921124EF92FF920F931F9362
:100CF0002F933F934F935F936F937F938F939F9324
:100D0000AF93BF93CF93DF93EF93FF9389EF91E27C
:100D10000E94DA0C89EF91E20E94C60C882309F444
:100D20002DC189EF91E20E94CE0C853709F026C1D2
:100D3000CAEBD0E200E010E0E12CF12C89EF91E267
:100D40000E94DA0C89EF91E20E94C60C8823B1F36D
:100D500089EF91E20E94CE0CFE01EE0DFF1D808313
:100D60002FEFE21AF20A3FE0E316F10439F789EFB8
:100D700091E20E94DA0C89EF91E20E94C60C88236E
:100D8000B1F389EF91E20E94CE0CF801E654FF4DD9
:100D90007F01878789EF91E20E94DA0C89EF91E267
:100DA0000E94C60C8823B1F389EF91E20E94CE0C19
:100DB000188A898B89EF91E20E94DA0C89EF91E21F
:100DC0000E94C60C8823B1F389EF91E20E94CE0CF9
:100DD00028893989282B288B398B89EF91E20E9449
:100DE000DA0C89EF91E20E94C60C8823B1F389EFF7
:100DF00091E20E94CE0C1A8A8B8B89EF91E20E94BD
:100E0000DA0C89EF91E20E94C60C8823B1F389EFD6
:100E100091E20E94CE0C2A893B89282B2A8B3B8B9E
:100E200089EF91E20E94DA0C89EF91E20E94C60CF0
:100E30008823B1F389EF91E20E94CE0C1C8A8D8B3E
:100E400089EF91E20E94DA0C89EF91E20E94C60CD0
:100E50008823B1F389EF91E20E94CE0C2C893D8961
:100E6000282B2C8B3D8B89EF91E20E94DA0C89EFC5
:100E700091E20E94C60C8823B1F389EF91E20E94AF
:100E8000CE0C1E8A8F8B89EF91E20E94DA0C89EFDB
:100E900091E20E94C60C8823B1F389EF91E20E948F
:100EA000CE0C2E893F89282B2E8B3F8B89EF91E228
:100EB0000E94DA0C89EF91E20E94C60C8823B1F3FC
:100EC00089EF91E20E94CE0C188E898F89EF91E212
:100ED0000E94DA0C89EF91E20E94C60C8823B1F3DC
:100EE00089EF91E20E94CE0C288D398D282B288F16
:100EF000398F89EF91E20E94DA0C89EF91E20E942A
:100F0000C60C8823B1F389EF91E20E94CE0C1A8EB1
:100F10008B8F89EF91E20E94DA0C89EF91E20E94B7
:100F2000C60C8823B1F389EF91E20E94CE0C2A8D82
:100F30003B8D282B2A8F3B8F89EF91E20E94DA0CA0
:100F400089EF91E20E94C60C8823B1F389EF91E208
:100F50000E94CE0CF701948D892B848FB8016050CC
:100F600070404DE150E0CE010E94EA12035E1F4F37
:100F70006D960F33F1E01F0709F0DECE8091A108D6
:100F800085FFFCCF8AE78093A008EAEBF0E220E03F
:100F900030E080E090E04091A10845FFFCCFDF0108
:100FA000A80FB91F4C914093A00801968F3091056E
:100FB00091F78091A10885FFFCCFD901A654BF4DC0
:100FC0001F968C911F978093A0088091A10885FFA0
:100FD000FCCF808991899093A0089091A10895FFFA
:100FE000FCCF8093A0088091A10885FFFCCF828967
:100FF00093899093A0089091A10895FFFCCF8093CE
:10100000A0088091A10885FFFCCF848995899093E1
:10101000A0089091A10895FFFCCF8093A008809133
:10102000A10885FFFCCF868997899093A0089091AD
:10103000A10895FFFCCF8093A0088091A10885FFAF
:10104000FCCF808D918D9093A0089091A10895FF81
:10105000FCCF8093A0088091A10885FFFCCF828DF2
:10106000938D9093A0089091A10895FFFCCF809359
:10107000A0088091A10885FFFCCF5C968C9180939D
:10108000A008235E3F4F7D962F3381E0380709F09B
:1010900080CF8091A10885FFFCCF8AE78093A008CC
:1010A000FF91EF91DF91CF91BF91AF919F918F9180
:1010B0007F916F915F914F913F912F911F910F9170
:1010C000FF90EF900F900FBE0F901F901895FC01AE
:1010D00081818F7981838281867E482B462B428352
:1010E0008081827F8560808308950F93FC018181D8
:1010F0008F79806481838281867E482B462B428350
:10110000202B248380818D6080830F910895FC01C2
:10111000452B19F4608F718F0895628F738F089536
:10112000FC012581822F90E0672B19F421E030E04B
:1011300002C022E030E02823392381E0232B09F488
:1011400080E00895FC0181818C7F682B618347706A
:1011500043830895E4E4F6E080818F7D808380817D
:101160008F7B808380818F778083E0E4F6E08081CD
:1011700080628083808180648083808180688083B6
:10118000E0E6F6E08081807F8083E4E6F6E080811F
:101190008F6080830895809144068F7D80934406FC
:1011A00080916006807F80936006809164068F60E6
:1011B0008093640680914406806480934406809105
:1011C000440680688093440684E18A95F1F7809113
:1011D000680683FF2AC0809144068F778093440677
:1011E00084E18A95F1F784E18A95F1F780914406CC
:1011F00080688093440684E18A95F1F784E18A95BA
:10120000F1F7809144068F778093440684E18A95B4
:10121000F1F784E18A95F1F7809144068068809324
:10122000440684E18A95F1F7CFCF809144068F7709
:10123000809344060895CF93DF931F92CDB7DEB716
:1012400089830E94CB08E4E4F6E090819F7D90833F
:1012500090819F7B908390819068908340E656E0D8
:10126000DA019C919F609C93A4E6B6E09C918981F1
:10127000282F22952F70907F922B9C9394E19A9522
:10128000F1F794E19A95F1F790819F77908394E13B
:101290009A95F1F794E19A95F1F79081906890838F
:1012A0009C918F70907F892B8C9384E18A95F1F7C4
:1012B00094E19A95F1F780818F778083FA0180819C
:1012C000807F80838C918F608C930F90DF91CF9182
:1012D0000895CF93DF93E4E4F6E090819F7D9083BF
:1012E00090819F7B9083908190689083C0E6D6E048
:1012F00098819F609883A4E6B6E09C9182958F7058
:10130000907F892B8C9384E18A95F1F784E18A950B
:10131000F1F780818F7780838881807F88838C91AB
:101320008F608C93DF91CF9108950E94CB08E0E607
:10133000F6E08081807F8083E4E6F6E080818F6044
:101340008083E4E4F6E080818F7D80838081806407
:10135000808380818068808384E18A95F1F784E1CD
:101360008A95F1F7A8E6B6E09C9180818F7780831B
:1013700084E18A95F1F784E18A95F1F780818068AC
:10138000808384E18A95F1F784E18A95F1F72C91C5
:101390002F70892F8295807F90819F779083822BF9
:1013A0000895CF93DF931F92CDB7DEB789830E9454
:1013B000CB08E4E4F6E090819062908390819F7B7B
:1013C000908390819068908340E656E0DA019C918A
:1013D0009F609C93A4E6B6E09C918981282F22957A
:1013E0002F70907F922B9C9394E19A95F1F794E162
:1013F0009A95F1F790819F77908394E19A95F1F710
:1014000094E19A95F1F79081906890839C918F7008
:10141000907F892B8C9384E18A95F1F794E19A95DA
:10142000F1F780818F778083FA018081807F8083CC
:101430008C918F608C930F90DF91CF9108950E94D3
:10144000CB08E0E6F6E08081807F8083E4E6F6E08A
:1014500080818F608083E4E4F6E080818062808315
:1014600080818064808380818068808384E18A9524
:10147000F1F784E18A95F1F7A8E6B6E09C918081C6
:101480008F77808384E18A95F1F784E18A95F1F77B
:1014900080818068808384E18A95F1F784E18A9570
:1014A000F1F72C912F70892F82958F7090819F7703
:1014B0009083822B08950E94AA0880E30E94690904
:1014C00087EE93E00197F1F700C0000080E30E94EF
:1014D000690980E30E94690980E20E94690989E242
:1014E0000E941B0985E10E941B0982E70E941B09DB
:1014F00085E50E941B098EE60E941B098CE00E9474
:101500001B0981E00E941B0986E00C941B0982E004
:101510000E941B0987EE93E00197F1F700C00000DD
:10152000089581E00E941B0987EE93E00197F1F78F
:1015300000C000000895623031F0633031F0613056
:1015400029F4805F03C0805E01C08C5A80680C94CF
:101550001B09AF92BF92CF92DF92FF920F931F931E
:10156000CF93DF931F92CDB7DEB76C01062FF42E19
:101570000E949509982F9F77FF0CFF0CFF0C000F1E
:10158000000F000FA12CB12C10E08A2D8F0D80646C
:1015900099830E941B09F501E00FF11FEC0DFD1D61
:1015A00084910E94D1098FEFA81AB80A998188E026
:1015B000A816B10451F7892F80680F90DF91CF9161
:1015C0001F910F91FF90DF90CF90BF90AF900C9440
:1015D0001B09EF92FF921F93CF93DF931F92CDB71A
:1015E000DEB7009771F0182F7C018E2D811B8617B6
:1015F00040F4F70181917F0169830E94D1096981DB
:10160000F4CF0F90DF91CF911F91FF90EF9008954D
:101610008F929F92AF92BF92CF92DF92EF92FF9202
:101620001F93CF93DF93142F46E0489F9001499F6B
:10163000300D1124129FC001139F900D11240E94A0
:10164000BA0F6B01E12CF12CC701B60126E030E0A6
:1016500040E050E00E94E20FD62F812C912C5401E3
:10166000C0E0C117E9F0D501C4010596A11DB11D67
:10167000C816D906EA06FB0638F4C814D904EA04E9
:10168000FB0420F480E003C085E001C08D2F0E94A0
:10169000D109CF5F86E0880E911CA11CB11CE1CF5F
:1016A000DF91CF911F91FF90EF90DF90CF90BF908F
:1016B000AF909F908F900895AF92CF92EF920F933B
:1016C000FC0160837183428353831482C11002C082
:1016D00090E001C090E8211102C080E001C080E2EA
:1016E0000065A02A9A29892BDB018C93A081B18106
:1016F0001196EC92158216820280F381E02D80EA29
:1017000081830F91EF90CF90AF900895EF920F9358
:10171000FC016083718342835383211102C080E402
:1017200001C080E6082BDB010C93A081B1811196EA
:10173000EC920280F381E02D80E481830F91EF90A1
:101740000895EF920F931F93FC0100831183E282AF
:1017500063837483458356832783108611861F9184
:101760000F91EF900895CF93DF93FC01A581B6818F
:1017700018968C911897C081D181988194FD03C0EF
:1017800091E0948329C09B8115960D90BC91A02D6A
:10179000A80FB11D9C938F5FA581B68117969C9170
:1017A0001797891760F413960D90BC91A02DA80F80
:1017B000B11D9C91A081B18113969C930DC012968E
:1017C0009C9112970D90BC91A02D15969C93A5818C
:1017D000B68191E019969C930580F681E02D808773
:1017E000DF91CF910895CF93DF93FC01DB018481DA
:1017F000C581D681209751F09985992331F18823AD
:1018000029F0C281D3818C8184FF21C0A583B68356
:1018100019961C921997148212968C9112970D901A
:10182000BC91A02D16968C93A581B68118961C921A
:10183000A581B68113960D90BC91A02D8C9101903D
:10184000F081E02D838380E003C082E001C081E06D
:10185000DF91CF910895DC01ED91FC9111976383A5
:10186000ED91FC91828187FFFDCF83810895CF9315
:10187000DF93FC01DB01109709F443C06583768395
:1018800012963C911297CD91DC911197209709F017
:101890003E8317962C9180E090E0A581B681821757
:1018A000F8F413960D90BC91A02DA80FB91F4C9180
:1018B000A081B18113964C93A081B18112964C9175
:1018C000129747FFFBCF13964C91A581B6811596D1
:1018D0000D90BC91A02DA80FB91F4C930196DDCFA0
:1018E0000D90BC91A02D109711F015963C93A581F9
:1018F000B68118962C930580F681E02D81E08187D2
:1019000001C080E0DF91CF910895FC016083718375
:101910004283538315861486178616860895FC0124
:10192000628373830895FC01968527859F5F93707A
:1019300081E0921301C080E008950F931F93CF932D
:10194000DF931F92CDB7DEB78C0169830E94930CA1
:1019500069818823A9F0D8011E969C911E97F801F1
:10196000E90FF11D60879F5F9370F80196870190E2
:10197000F081E02D93819C7F12962C91922B938382
:101980000F90DF91CF911F910F910895FC01248555
:10199000958581E0291301C080E00895FC018585CB
:1019A000DF01A80FB11D14968C9195859F5F9370F0
:1019B00095870895FC0184858F5F83702585A081BC
:1019C000B1819C91821749F02485DF01A20FB11DDE
:1019D00014969C93848781E0089580E00895CF93C6
:1019E000DF93FC0187859685A081B181981307C09C
:1019F00013968C9113978C7F13968C930AC08785CE
:101A0000EF01C80FD11D88858C9387858F5F837008
:101A10008787DF91CF910895FC01848170FF02C018
:101A2000816001C08E7F848360830895FC0184817E
:101A300080FF04C0808190E091600895808190E0F3
:101A40000895CF93DF93CDB7DEB76997CDBFDEBFE3
:101A500080E1809302068093140690E29093020640
:101A60008093150690E4909302068093160690E802
:101A7000909302068093170632E03093810621E0AE
:101A80002093810694E09093810688E080938106FC
:101A9000309386062093850690938606809386066B
:101AA00000E010E020E030E040E068E070E080E23C
:101AB00093E00E94750861E070E080E293E00E948C
:101AC00090088823C1F341E050E060E078E080E2D4
:101AD00093E00E94870860E070E080E293E00E945B
:101AE00090088823C1F340E050E060E078E080E2B5
:101AF00093E00E94870888E08093410684E0809309
:101B0000420641E050E060EA78E089EF91E20E940D
:101B1000850C83E08093A5088091A3088F7C806169
:101B20008093A3088CE08093A6081092A708809168
:101B3000A40880618093A4088091A40888608093A1
:101B4000A40880E092E00E94AB0180910102897EAE
:101B500080618093010280910402887F816080937C
:101B60000402809102028F7C806180930202809146
:101B70002002807E82608093200280912802807EF5
:101B800082608093280211E01093210281E180930A
:101B90002902809100028160809300020E945B0A0A
:101BA0000E945B0A0E94910A0E94870A6CE084E20C
:101BB00090E20E94E90A2FE78AE196E021508040F6
:101BC0009040E1F700C00000198E188F1F8A1E8A0E
:101BD0001D8A00E010E0B801605070404DE150E017
:101BE000C80186549F4D0E94DE12035E1F4F0F33C3
:101BF00021E0120781F78091A20081608093A2000A
:101C0000789461E370E287ED90E20E94D71281E060
:101C10008093E62088E191E08093E7209093E8208C
:101C200084E49DEF8093E9209093EA208CEB92E08E
:101C30008093EB209093EC2082E090E08093ED2065
:101C40009093EE2087E090E08093EF209093F02037
:101C50001092F1201092F22082E08093F32000E0B5
:101C600010E0B801605070404DE150E0C80186546A
:101C70009F4D0E94EA12035E1F4F0F3381E0180749
:101C800081F7898D81112FC00E94910A0E94870AD5
:101C900061E081E490E20E94E90A6EE083E490E270
:101CA0000E94E90A61E080E00E949B0A68E082E508
:101CB00090E20E94E90ACE0143966C0102967C01F3
:101CC0008E010A5E1F4F9E01295E3F4FAE01485EA6
:101CD0005F4FBE01675E7F4F8AEB90E20E940C026D
:101CE000019749F7CECF853009F0B4C00E94910A20
:101CF0000E94870A68E08BE590E20E94E90A609101
:101D0000B6207091B7208091B8209091B9200E94A0
:101D1000E8106B017C01072E000C880B990B0E94C8
:101D200020116093B6207093B7208093B8209093D1
:101D3000B920BE016F5F7F4FC6010E94C801682FA6
:101D4000CE0101960E94E90A61E080E00E949B0AB0
:101D50006091092270910A2280910B2290910C22AD
:101D60000E94E810072E000C880B990B0E9420118E
:101D70006093092270930A2280930B2290930C2285
:101D800067E084E690E20E94E90A6091092270917E
:101D90000A2280910B2290910C220E94E810DC0113
:101DA000CB01BE016F5F7F4F0E94C801682FCE013B
:101DB00001960E94E90A62E080E00E949B0A60911D
:101DC0000D2270910E2280910F22909110220E947C
:101DD000E810072E000C880B990B0E9420116093CD
:101DE0000D2270930E2280930F229093102266E0B2
:101DF0008CE690E20E94E90A60910D2270910E2219
:101E000080910F22909110220E94E810DC01CB01FA
:101E1000BE016F5F7F4F0E94C801682FCE010196FF
:101E20000E94E90ACE0143966C0102967C018E0164
:101E30000A5E1F4F9E01295E3F4FAE01485E5F4F15
:101E4000BE01675E7F4F8AEB90E20E940C02019711
:101E500049F717CF813031F50E94910A0E94870A15
:101E600061E081E490E20E94E90A6AE083E790E29F
:101E70000E94E90ACE0143966C0102967C018E0114
:101E80000A5E1F4F9E01295E3F4FAE01485E5F4FC5
:101E9000BE01675E7F4F8AEB90E20E940C020197C1
:101EA00049F7EFCE823081F50E94910A0E94870A9D
:101EB0006AE08EE790E20E94E90AE88D9DE1E99FE1
:101EC000F0011124E654FF4DE08CF18C068917894E
:101ED000248935894289538960897189C48CCF01ED
:101EE0000E9459028B8B9C8B019659F48FE79AE1E3
:101EF00026E0815090402040E1F700C0000083E0E0
:101F000001C084E0898FBDCE843009F0BACE0E9432
:101F1000910A0E94870A6DE08AE890E20E94E90A2D
:101F200061E080E00E949B0A6EE088E990E20E94F6
:101F3000E90A62E080E00E949B0A6CE087EA90E296
:101F40000E94E90ACE0143966C0102967C018E0143
:101F50000A5E1F4F9E01295E3F4FAE01485E5F4FF4
:101F6000BE01675E7F4F8AEB90E20E940C020197F0
:101F700049F787CEAA1BBB1B51E107C0AA1FBB1F95
:101F8000A617B70710F0A61BB70B881F991F5A9505
:101F9000A9F780959095BC01CD01089597FB072E78
:101FA00016F4009407D077FD09D00E94BA0F07FC01
:101FB00005D03EF4909581959F4F08957095619559
:101FC0007F4F0895A1E21A2EAA1BBB1BFD010DC075
:101FD000AA1FBB1FEE1FFF1FA217B307E407F507D9
:101FE00020F0A21BB30BE40BF50B661F771F881FB5
:101FF000991F1A9469F760957095809590959B014B
:10200000AC01BD01CF0108955058BB27AA270E94FB
:102010001C100C9496110E94881138F00E948F11A8
:1020200020F039F49F3F19F426F40C9485110EF436
:10203000E095E7FB0C947F11E92F0E94A71158F35C
:10204000BA17620773078407950720F079F4A6F59D
:102050000C94C9110EF4E0950B2EBA2FA02D0B0194
:10206000B90190010C01CA01A0011124FF27591BDD
:1020700099F0593F50F4503E68F11A16F040A22FE3
:10208000232F342F4427585FF3CF46953795279554
:10209000A795F0405395C9F77EF41F16BA0B620B53
:1020A000730B840BBAF09150A1F0FF0FBB1F661F9A
:1020B000771F881FC2F70EC0BA0F621F731F841FDD
:1020C00048F4879577956795B795F7959E3F08F003
:1020D000B0CF9395880F08F09927EE0F97958795C5
:1020E00008950E945B1108F481E008950E948A100F
:1020F0000C9496110E948F1158F00E94881140F0A4
:1021000029F45F3F29F00C947F1151110C94CA11EE
:102110000C9485110E94A71168F39923B1F35523FC
:1021200091F3951B550BBB27AA27621773078407EA
:1021300038F09F5F5F4F220F331F441FAA1FA9F380
:1021400035D00E2E3AF0E0E832D091505040E6956E
:10215000001CCAF72BD0FE2F29D0660F771F881FCF
:10216000BB1F261737074807AB07B0E809F0BB0BC2
:10217000802DBF01FF2793585F4F3AF09E3F5105D6
:1021800078F00C947F110C94CA115F3FE4F3983EF1
:10219000D4F3869577956795B795F7959F5FC9F7BF
:1021A000880F911D9695879597F90895E1E0660F40
:1021B000771F881FBB1F621773078407BA0720F0B9
:1021C000621B730B840BBA0BEE1F88F7E095089522
:1021D0000E94EF106894B1110C94CA1108950E94E6
:1021E000AF1188F09F5798F0B92F9927B751B0F0E9
:1021F000E1F0660F771F881F991F1AF0BA95C9F78B
:1022000014C0B13091F00E94C911B1E008950C944E
:10221000C911672F782F8827B85F39F0B93FCCF301
:10222000869577956795B395D9F73EF49095809507
:10223000709561957F4F8F4F9F4F0895E89409C027
:1022400097FB3EF490958095709561957F4F8F4FE9
:102250009F4F9923A9F0F92F96E9BB279395F695FF
:10226000879577956795B795F111F8CFFAF4BB0F7D
:1022700011F460FF1BC06F5F7F4F8F4F9F4F16C0E1
:10228000882311F096E911C0772321F09EE8872F6B
:10229000762F05C0662371F096E8862F70E060E027
:1022A0002AF09A95660F771F881FDAF7880F9695A0
:1022B000879597F90895990F0008550FAA0BE0E844
:1022C000FEEF16161706E807F907C0F012161306F8
:1022D000E407F50798F0621B730B840B950B39F438
:1022E0000A2661F0232B242B252B21F408950A269E
:1022F00009F4A140A6958FEF811D811D089597F9DE
:102300009F6780E870E060E008959FEF80EC08959B
:1023100000240A94161617061806090608950024C4
:102320000A9412161306140605060895092E03943E
:10233000000C11F4882352F0BB0F40F4BF2B11F4B2
:1023400060FF04C06F5F7F4F8F4F9F4F089557FD11
:102350009058440F551F59F05F3F71F04795880F13
:1023600097FB991F61F09F3F79F0879508951216AA
:1023700013061406551FF2CF4695F1DF08C0161656
:1023800017061806991FF1CF869571056105089407
:102390000895E894BB2766277727CB0197F908951E
:1023A0000E94E3110C9496110E94881138F00E944B
:1023B0008F1120F0952311F00C947F110C9485114E
:1023C00011240C94CA110E94A71170F3959FC1F3B8
:1023D000950F50E0551F629FF001729FBB27F00DD3
:1023E000B11D639FAA27F00DB11DAA1F649F662728
:1023F000B00DA11D661F829F2227B00DA11D621F77
:10240000739FB00DA11D621F839FA00D611D221F30
:10241000749F3327A00D611D231F849F600D211D14
:10242000822F762F6A2F11249F5750409AF0F1F097
:1024300088234AF0EE0FFF1FBB1F661F771F881F00
:1024400091505040A9F79E3F510580F00C947F11A8
:102450000C94CA115F3FE4F3983ED4F386957795C8
:102460006795B795F795E7959F5FC1F7FE2B880FA6
:10247000911D9695879597F908950E94AF11E8F000
:102480009E37E8F09639B8F49E3848F4672F782FD5
:102490008827985FF9CF86957795679593959539B5
:1024A000D0F3B62FB1706B0F711D811D20F487958D
:1024B0007795679593950C94A7120C94C2120C947F
:1024C000CA1119F416F40C9485110C94C2120E94CE
:1024D000AF11B8F39923C9F3B6F39F57550B87FF94
:1024E0000E94D0120024A0E640EA90018058569540
:1024F000979528F4805C660F771F881F20F02617B9
:102500003707480730F4621B730B840B20293129ED
:102510004A2BA69517940794202531254A2758F76A
:10252000660F771F881F20F026173707480730F4FB
:10253000620B730B840B200D311D411DA09581F79B
:10254000B901842F9158880F96958795089588230F
:1025500071F4772321F09850872B762F07C06623DC
:1025600011F499270DC09051862B70E060E02AF09D
:102570009A95660F771F881FDAF7880F96958795CB
:1025800097F908959F3F31F0915020F48795779502
:102590006795B795880F911D9695879597F908953A
:1025A00091505040660F771F881FD2F70895FB01A6
:1025B000DC0101900D920020E1F70895E0ECF1E0DC
:1025C000A785A7FDFDCFA485A860A4876050704FA4
:1025D0000C941713DC01CB0103C02D910E94F5125E
:1025E00041505040D0F70895262FE0ECF1E03785B8
:1025F00037FDFDCF3485377F3487378531FF09C0FC
:1026000036E3328738ED34BF31E03387378537FD25
:10261000FDCF33E33287808391831282248325E3C5
:10262000228728ED31E024BF338701960895FB010E
:10263000DC0102C001900D9241505040D8F708953E
:04264000F894FFCF3C
:102644006F757473696465206C696D697473007463
:102654006F6F206D616E79206461746120706F69A1
:102664006E74730043444143204B6F6C6B6174611F
:102674000043562023312020202020202020202009
:10268400007E0052696768742070726573732074E9
:102694006F007374617274204356005374446576FA
:1026A400203D20004D65616E203D20004D61782065
:1026B4003D20005374617274207465737400546512
:1026C4007374696E672E2E2E2E0054657374204326
:1026D4006F6D706C657465005072657373207269F8
:1026E40067687420746F0076696577207265737506
:0426F4006C7473008F
:00000001FF
