:100000000C9400010C941D010C941D010C941D0115
:100010000C941D010C941D010C941D010C941D01E8
:100020000C941D010C941D010C941D010C941D01D8
:100030000C941D010C941D010C941D010C941D01C8
:100040000C941D010C941D010C941D010C941D01B8
:100050000C941D010C941D010C941D010C941D01A8
:100060000C941D010C946E060C941D010C941D0142
:100070000C941D010C941D010C941D010C941D0188
:100080000C941D010C941D010C941D010C941D0178
:100090000C941D010C941D010C941D010C941D0168
:1000A0000C941D010C941D010C941D010C941D0158
:1000B0000C941D010C941D010C941D010C941D0148
:1000C0000C941D010C941D010C941D010C941D0138
:1000D0000C941D010C941D010C941D010C941D0128
:1000E0000C941D010C941D010C941D010C941D0118
:1000F0000C941D010C941D010C941D010C941D0108
:100100000C941D010C941D010C941D010C941D01F7
:100110000C941D010C941D010C941D010C941D01E7
:100120000C941D010C941D010C941D010C941D01D7
:100130000C941D010C941D010C941D010C941D01C7
:100140000C941D010C941D010C941D010C941D01B7
:100150000C941D010C941D010C941D010C941D01A7
:100160000C941D010C941D010C941D010C941D0197
:100170000C941D010C941D01001F000000001F00C5
:10018000001F101010101F00001F181818181F0053
:10019000001F1C1C1C1C1F00001F1E1E1E1E1F00FB
:1001A000001F1F1F1F1F1F0003070F1F0F07030044
:1001B000001F1F1F1F1F1F001B1B1B1B1B1B1B00C8
:1001C000181C1E1F1E1C18000004040E0E1F1F000A
:1001D000001F1F0E0E0404000000000000000000BD
:1001E000000E1915130E0000000E1515150E000057
:1001F000000E1315190E0000000E111F110E000045
:1002000011241FBECFEFCDBFDFE2DEBF10E2A0E0C2
:10021000B0E2EEEFFBE202C005900D92A83BB10701
:10022000D9F722E2A8EBB0E201C01D92A531B207D6
:10023000E1F70E94200D0C94FD150C94000021E0C4
:10024000FC01238384819581861B9109089521E017
:10025000FC01238384819581861B910967FD939519
:10026000089521E0FC01238384819581089521E094
:10027000FC0123838481089521E0FC01238385818F
:100280000895FC01848114829AE29A95F1F700C0E6
:1002900084830895FC01848191E0948395E59A9587
:1002A000F1F7000084830895FB014423C1F024E0AA
:1002B00030E080E090E061E040814068408343812D
:1002C00040FFFDCF638344815581840F951F2150EA
:1002D000310991F796958795969587950895808130
:1002E00080688083838180FFFDCF81E08383848168
:1002F00095810895FB014423D1F024E030E080E0B3
:1003000090E061E0408140684083438140FFFDCF41
:10031000638344815581840F951F2150310991F7E2
:1003200097FD039695958795959587950895808176
:1003300080688083838180FFFDCF81E08383848117
:1003400095810895AAECB1E092E09C93E82FF0E04B
:1003500084911C920895CF93DF93EC01C11582E044
:10036000D80759F480E20E94A20180930C0281E236
:100370000E94A20180930D0208C084E20E94A201A3
:100380008C8785E20E94A2018D87DF91CF9108952D
:10039000AC0190E0FA01E90FF11D2081222341F028
:1003A0008091A10885FFFCCF2093A0089F5FF2CF2A
:1003B0000895FB0184E08430B9F48091080684FD3F
:1003C00012C08091080685FD0CC08091080686FD4C
:1003D00006C09091080680E097FFEFCFECCF81E058
:1003E00003C083E001C082E09081911106C0823099
:1003F00009F581E08083F90104C0953021F4813052
:10040000C9F4108217C0913019F48230C1F707C0C7
:10041000923081F0943029F4823099F785E080831E
:1004200009C0FFE72AE186E0F15020408040E1F773
:1004300000C000009FE7E8E3F1E09150E040F040A9
:10044000E1F700C0000081E090E008952F923F9214
:100450004F925F926F927F928F929F92AF92BF92D4
:10046000CF92DF92EF92FF920F931F93CF93DF9380
:10047000CDB7DEB7C15DDB40CDBFDEBFC253D44FC9
:100480008883CE5CDB40C153D44F9883CF5CDB4084
:10049000C154D44F68837983CF5BDB40CF53D44FB3
:1004A00048835983C15CDB402901CB53D44F088377
:1004B0001983C55CDB40CD53D44FE882F982C35C1D
:1004C000DB40C353D44FC882CD5CDB40CA01805CA3
:1004D000994F81389C4080F4C201805C994F8138EB
:1004E0009C4050F4CB010A978F31934228F4C70106
:1004F00001978034964040F00E94900A0E94860A3C
:100500006EE080E090E2ACC0CF53D44FE881F98137
:10051000C15CDB40BF010F2E000C880B990B620100
:10052000052C000CEE08FF0892012E1B3F0B121643
:1005300013067CF50E942B112AE030EE4EE95FE3B2
:100540000E94DB110E94481220E030E040E055E4B8
:100550000E9410100E94F3105B01C701B6010E94B7
:100560002B112AE030EE4EE95FE30E94DB110E947E
:10057000481220E030E040E055E40E9410100E9454
:10058000F3101B01F1E0C754D44FF883C95BDB4083
:100590002DC00E942B112AE030EE4EE95FE30E944D
:1005A000DB110E94481220E030E040E055E40E9458
:1005B00010100E94F3101B01C701B6010E942B11FD
:1005C0002AE030EE4EE95FE30E94DB110E94481200
:1005D00020E030E040E055E40E9410100E94F3104B
:1005E0005B01C754D44F1882C95BDB40CB53D44F57
:1005F000C880D980C55CDB40CC0CDD1CCD53D44F0A
:1006000028813981C35CDB40B901330F880B990B1A
:100610000E942B112AE030EE4EE95FE30E94DB11CD
:100620000E9448120E94FA10C354D44F6883798301
:10063000CD5BDB40C1018A199B090E94C50FC69E94
:10064000C001C79E900DD69E900D11248D3D954002
:1006500060F00E94900A0E94860A64E18FE090E2B6
:100660000E94E80A8FEF9FEF22C3C154D44F488104
:100670005981CF5BDB40BA01052E000C880B990B2A
:100680004F31510514F10E942B119B01AC0160E028
:1006900070E080E89FE30E94811020E034E244EFA4
:1006A00059E40E94DB1120E030E44EE45FE30E9455
:1006B000DB110E9448120E94FA10C554D44F68837F
:1006C0007983CB5BDB4081E021C00E942B119B0131
:1006D000AC0160E070E080E89FE30E94811020E0C0
:1006E00034E244EF58E40E94DB1120E030E44EE4B1
:1006F0005FE30E94DB110E9448120E94FA10C55469
:10070000D44F68837983CB5BDB4083E08093000820
:10071000C754D44F5881C95BDB40511102C08101DD
:1007200001C0850182E08093850684E08093850680
:10073000C353D44F8881CD5CDB40813021F488E005
:100740008093860603C088E08093850681E08093CD
:10075000860660E070E080E293E00E948F088823C4
:10076000C1F340E050E0B80180E293E00E948608C7
:100770009FE9E6E8F1E09150E040F040E1F700C089
:100780000000612C712C812C912C60E070E080E2E3
:1007900093E00E948F088823C1F340E050E0B80145
:1007A00080E293E00E9486081092200810922108AF
:1007B000C754D44F2881C95BDB40222331F00F5F3F
:1007C0001F4F021513053CF41CC001501109A0165F
:1007D000B10664F416C031E0C31AD10809F480C030
:1007E000C754D44F1882C95BDB400BC041E0C41A28
:1007F000D10809F475C051E0C754D44F5883C95B80
:10080000DB407301EE0CFF1CE1E0F0E0EC0FFD1F9C
:10081000EE0DFF1D108211827F01809120089091C2
:100820002108C554D44F28813981CB5BDB40821726
:10083000930708F040C080912802806880932802C6
:1008400080912B0280FD0DC080912008909121089D
:10085000C554D44F28813981CB5BDB408217930785
:1008600078F3F7012081318160E088E292E0211580
:10087000310519F40E9427011AC0C053D44F2883B0
:10088000C05DDB40CF52D44F3883C15DDB400E9456
:100890002701C053D44F2881C05DDB40CF52D44FD5
:1008A0003881C15DDB40820F931F95958795F701D5
:1008B00080839183B2CF3FEF831A930AC354D44FFE
:1008C00048815981CD5BDB408416950608F45DCFE5
:1008D0006092B8207092B9205FEF651A750A53CF05
:1008E0002090B8203090B920B10137FE02C06F5F70
:1008F0007F4F6B01D594C794C601880F991FE1E023
:10090000F0E0EC0FFD1FE80FF91FC354D44FE8834C
:10091000F983CD5BDB4060817181072E000C880B71
:10092000990B0E942B117B018C01C554D44FC882B6
:10093000D982CB5BDB40A12CB12CC754D44F188299
:100940001982C95BDB40C554D44F88819981CB5B48
:10095000DB40281639060CF459C0C354D44FE88143
:10096000F981CD5BDB40EA0DFB1D60817181C754CD
:10097000D44F28813981C95BDB40260F371FC7540C
:10098000D44F28833983C95BDB40072E000C880BCA
:10099000990B0E942B11C953D44F6883C75CDB406D
:1009A000C853D44F7883C85CDB404C019B01AC0139
:1009B000B701C8010E947C1087FD0BC0C953D44FFA
:1009C000E882C75CDB40C853D44FF882C85CDB4088
:1009D0004801C554D44F48815981CB5BDB404F5F00
:1009E0005F4FC554D44F48835983CB5BDB4052E003
:1009F000A50EB11CC953D44FE880C75CDB40C85377
:100A0000D44FF880C85CDB4084019DCFC701D8017A
:100A10008093112290931222A0931322B093142258
:100A2000C754D44F88819981C95BDB40B6010E94CD
:100A3000D90F072E000C880B990B0E942B114B012C
:100A40005C0160930D2270930E2280930F2290938D
:100A500010228601E12CF12C20163106A4F1C3549A
:100A6000D44FE881F981CD5BDB40EE0DFF1D608145
:100A70007181072E000C880B990B0E942B119B0192
:100A8000AC01C501B4010E940F109B01AC010E9492
:100A9000DB119B01AC01C753D44F688179818A81F6
:100AA0009B81C95CDB400E941010C753D44F688300
:100AB00079838A839B83C95CDB400F5F1F4F92E081
:100AC000E90EF11CC9CFB601DD0C880B990B0E9411
:100AD0002B119B01AC01C753D44F688179818A8166
:100AE0009B81C95CDB400E9481100E94FA100E9429
:100AF00029110E9472126093BA207093BB208093D8
:100B0000BC209093BD2081E08093850682E0809395
:100B1000860684E08093860688E08093860660E0FF
:100B200070E080E293E00E948F088823C1F340E0E8
:100B300050E060E078E080E293E00E9486088091D7
:100B4000A10885FFFCCF81E08093A008C253D44F59
:100B5000E881CE5CDB40C153D44FF881CF5CDB40F1
:100B6000CF010F962091A10825FFFCCF2191209362
:100B7000A008E817F907B1F78091A10885FFFCCF1D
:100B8000C054D44FE881C05CDB40E093A008809162
:100B9000A10885FFFCCFC154D44FF881CF5BDB4067
:100BA000F093A0088091A10885FFFCCFCE53D44FCD
:100BB0002881C25CDB402093A0088091A10885FFBA
:100BC000FCCFCF53D44F3881C15CDB403093A008B9
:100BD0008091A10885FFFCCF5092A0088091A108C8
:100BE00085FFFCCF4092A0088091A10885FFFCCF33
:100BF000CA53D44F4881C65CDB404093A008809123
:100C0000A10885FFFCCFCB53D44F5881C55CDB4096
:100C10005093A0088091A10885FFFCCFCC53D44FFE
:100C20008881C45CDB408093A0088091A10885FF87
:100C3000FCCFCD53D44F9881C35CDB409093A00888
:100C40008091A10885FFFCCFC353D44FE881CD5CD0
:100C5000DB40E093A0088091A10885FFFCCF709253
:100C6000A0088091A10885FFFCCF6092A008FE013A
:100C7000319680E090E08615970589F02091A108D3
:100C800025FFFCCF2081318132963093A00830912E
:100C9000A10835FFFCCF2093A0080196ECCF8091EE
:100CA000A10885FFFCCF81E08093A008C301CF524B
:100CB000D44FCDBFDEBFDF91CF911F910F91FF9039
:100CC000EF90DF90CF90BF90AF909F908F907F90EC
:100CD0006F905F904F903F902F9008951F920F92CA
:100CE0000FB60F921124EF92FF920F931F932F9341
:100CF0003F934F935F936F937F938F939F93AF93A4
:100D0000BF93CF93DF93EF93FF938DEF91E20E9418
:100D1000D90C8DEF91E20E94C50C882309F42DC1F6
:100D20008DEF91E20E94CD0C853709F026C1CEEB04
:100D3000D0E200E010E0E12CF12C8DEF91E20E9476
:100D4000D90C8DEF91E20E94C50C8823B1F38DEF91
:100D500091E20E94CD0CFE01EE0DFF1D80832FEF6E
:100D6000E21AF20A3FE0E316F10439F78DEF91E25F
:100D70000E94D90C8DEF91E20E94C50C8823B1F33B
:100D80008DEF91E20E94CD0CF801E254FF4D7F01FE
:100D900087878DEF91E20E94D90C8DEF91E20E943E
:100DA000C50C8823B1F38DEF91E20E94CD0C188A17
:100DB000898B8DEF91E20E94D90C8DEF91E20E9418
:100DC000C50C8823B1F38DEF91E20E94CD0C2889E8
:100DD0003989282B288B398B8DEF91E20E94D90C11
:100DE0008DEF91E20E94C50C8823B1F38DEF91E263
:100DF0000E94CD0C1A8A8B8B8DEF91E20E94D90C48
:100E00008DEF91E20E94C50C8823B1F38DEF91E242
:100E10000E94CD0C2A893B89282B2A8B3B8B8DEF96
:100E200091E20E94D90C8DEF91E20E94C50C8823BB
:100E3000B1F38DEF91E20E94CD0C1C8A8D8B8DEF6A
:100E400091E20E94D90C8DEF91E20E94C50C88239B
:100E5000B1F38DEF91E20E94CD0C2C893D89282BB6
:100E60002C8B3D8B8DEF91E20E94D90C8DEF91E29E
:100E70000E94C50C8823B1F38DEF91E20E94CD0C46
:100E80001E8A8F8B8DEF91E20E94D90C8DEF91E23B
:100E90000E94C50C8823B1F38DEF91E20E94CD0C26
:100EA0002E893F89282B2E8B3F8B8DEF91E20E945C
:100EB000D90C8DEF91E20E94C50C8823B1F38DEF20
:100EC00091E20E94CD0C188E898F8DEF91E20E94E5
:100ED000D90C8DEF91E20E94C50C8823B1F38DEF00
:100EE00091E20E94CD0C288D398D282B288F398FC7
:100EF0008DEF91E20E94D90C8DEF91E20E94C50C1A
:100F00008823B1F38DEF91E20E94CD0C1A8E8B8F66
:100F10008DEF91E20E94D90C8DEF91E20E94C50CF9
:100F20008823B1F38DEF91E20E94CD0C2A8D3B8D89
:100F3000282B2A8F3B8F8DEF91E20E94D90C8DEFE9
:100F400091E20E94C50C8823B1F38DEF91E20E94DB
:100F5000CD0CF701948D892B848FB80160507040BF
:100F60004DE150E0CE010E949615035E1F4F6D9635
:100F70000F33F1E01F0709F0DECE8091A10885FF55
:100F8000FCCF8AE78093A008EEEBF0E220E030E0AF
:100F900080E090E04091A10845FFFCCFDF01A80F61
:100FA000B91F4C914093A00801968F30910591F79D
:100FB0008091A10885FFFCCFD901A254BF4D1F9697
:100FC0008C911F978093A0088091A10885FFFCCF8A
:100FD000808991899093A0089091A10895FFFCCFFA
:100FE0008093A0088091A10885FFFCCF8289938916
:100FF0009093A0089091A10895FFFCCF8093A00842
:101000008091A10885FFFCCF848995899093A008E1
:101010009091A10895FFFCCF8093A0088091A10832
:1010200085FFFCCF868997899093A0089091A108AD
:1010300095FFFCCF8093A0088091A10885FFFCCF8D
:10104000808D918D9093A0089091A10895FFFCCF81
:101050008093A0088091A10885FFFCCF828D938D9D
:101060009093A0089091A10895FFFCCF8093A008D1
:101070008091A10885FFFCCF5C968C918093A0089D
:10108000235E3F4F7D962F3381E0380709F080CFF4
:101090008091A10885FFFCCF8AE78093A008FF918B
:1010A000EF91DF91CF91BF91AF919F918F917F9100
:1010B0006F915F914F913F912F911F910F91FF90F1
:1010C000EF900F900FBE0F901F901895FC0181813B
:1010D0008F7981838281867E482B462B4283808153
:1010E000827F8560808308950F93FC0181818F79D1
:1010F000806481838281867E482B462B4283202B0D
:10110000248380818D6080830F910895FC01452B9D
:1011100019F4608F718F0895628F738F0895FC01A9
:101120002581822F90E0672B19F421E030E002C086
:1011300022E030E02823392381E0232B09F480E0EA
:101140000895FC0181818C7F682B61834770438304
:101150000895E4E4F6E080818F7D808380818F7B39
:10116000808380818F778083E0E4F6E080818062F5
:101170008083808180648083808180688083E0E6D2
:10118000F6E08081807F8083E4E6F6E080818F60F6
:1011900080830895809144068F7D809344068091DA
:1011A0006006807F80936006809164068F608093E4
:1011B00064068091440680648093440680914406CE
:1011C00080688093440684E18A95F1F780916806EF
:1011D00083FF2AC0809144068F778093440684E180
:1011E0008A95F1F784E18A95F1F780914406806849
:1011F0008093440684E18A95F1F784E18A95F1F7BA
:10120000809144068F778093440684E18A95F1F7B4
:1012100084E18A95F1F780914406806880934406C2
:1012200084E18A95F1F7CFCF809144068F77809340
:1012300044060895CF93DF931F92CDB7DEB789831D
:101240000E94CA08E4E4F6E090819F7D908390813B
:101250009F7B908390819068908340E656E0DA010E
:101260009C919F609C93A4E6B6E09C918981282F75
:1012700022952F70907F922B9C9394E19A95F1F791
:1012800094E19A95F1F790819F77908394E19A95F4
:10129000F1F794E19A95F1F79081906890839C9191
:1012A0008F70907F892B8C9384E18A95F1F794E17C
:1012B0009A95F1F780818F778083FA018081807F12
:1012C00080838C918F608C930F90DF91CF910895E4
:1012D000CF93DF93E4E4F6E090819F7D908390814B
:1012E0009F7B9083908190689083C0E6D6E0988140
:1012F0009F609883A4E6B6E09C9182958F70907F62
:10130000892B8C9384E18A95F1F784E18A95F1F732
:1013100080818F7780838881807F88838C918F60A4
:101320008C93DF91CF9108950E94CA08E0E6F6E021
:101330008081807F8083E4E6F6E080818F60808317
:10134000E4E4F6E080818F7D808380818064808307
:1013500080818068808384E18A95F1F784E18A95B1
:10136000F1F7A8E6B6E09C9180818F77808384E1D5
:101370008A95F1F784E18A95F1F78081806880830E
:1013800084E18A95F1F784E18A95F1F72C912F7029
:10139000892F8295807F90819F779083822B0895FB
:1013A000CF93DF931F92CDB7DEB789830E94CA081F
:1013B000E4E4F6E090819062908390819F7B90833B
:1013C00090819068908340E656E0DA019C919F609E
:1013D0009C93A4E6B6E09C918981282F22952F70DA
:1013E000907F922B9C9394E19A95F1F794E19A95D2
:1013F000F1F790819F77908394E19A95F1F794E1CA
:101400009A95F1F79081906890839C918F70907F6E
:10141000892B8C9384E18A95F1F794E19A95F1F701
:1014200080818F778083FA018081807F80838C9197
:101430008F608C930F90DF91CF9108950E94CA081E
:10144000E0E6F6E08081807F8083E4E6F6E080815C
:101450008F608083E4E4F6E0808180628083808115
:101460008064808380818068808384E18A95F1F73D
:1014700084E18A95F1F7A8E6B6E09C9180818F77A8
:10148000808384E18A95F1F784E18A95F1F7808180
:101490008068808384E18A95F1F784E18A95F1F789
:1014A0002C912F70892F82958F7090819F779083D8
:1014B000822B08950E94A90880E30E94680987EEA4
:1014C00093E00197F1F700C0000080E30E946809F3
:1014D00080E30E94680980E20E94680989E20E9414
:1014E0001A0985E10E941A0982E70E941A0985E516
:1014F0000E941A098EE60E941A098CE00E941A09BD
:1015000081E00E941A0986E00C941A0982E00E9488
:101510001A0987EE93E00197F1F700C000000895E3
:1015200081E00E941A0987EE93E00197F1F700C06D
:1015300000000895623031F0633031F0613029F4F9
:10154000805F03C0805E01C08C5A80680C941A09C9
:10155000AF92BF92CF92DF92FF920F931F93CF93E0
:10156000DF931F92CDB7DEB76C01062FF42E0E94D9
:101570009409982F9F77FF0CFF0CFF0C000F000FB2
:10158000000FA12CB12C10E08A2D8F0D806499835F
:101590000E941A09F501E00FF11FEC0DFD1D849169
:1015A0000E94D0098FEFA81AB80A998188E0A8167E
:1015B000B10451F7892F80680F90DF91CF911F916F
:1015C0000F91FF90DF90CF90BF90AF900C941A09CD
:1015D000EF92FF921F93CF93DF931F92CDB7DEB7A9
:1015E000009771F0182F7C018E2D811B861740F417
:1015F000F70181917F0169830E94D0096981F4CF4D
:101600000F90DF91CF911F91FF90EF9008958F92EF
:101610009F92AF92BF92CF92DF92EF92FF921F9371
:10162000CF93DF93142F46E0489F9001499F300DE0
:101630001124129FC001139F900D11240E94C50F09
:101640006B01E12CF12CC701B60126E030E040E04F
:1016500050E00E94ED0FD62F812C912C5401C0E058
:10166000C117E9F0D501C4010596A11DB11DC81629
:10167000D906EA06FB0638F4C814D904EA04FB04C8
:1016800020F480E003C085E001C08D2F0E94D009C6
:10169000CF5F86E0880E911CA11CB11CE1CFDF91C9
:1016A000CF911F91FF90EF90DF90CF90BF90AF90C0
:1016B0009F908F900895AF92CF92EF920F93FC017D
:1016C00060837183428353831482C11002C090E00F
:1016D00001C090E8211102C080E001C080E20065F5
:1016E000A02A9A29892BDB018C93A081B1811196C4
:1016F000EC92158216820280F381E02D80EA8183CC
:101700000F91EF90CF90AF900895EF920F93FC015F
:101710006083718342835383211102C080E401C03E
:1017200080E6082BDB010C93A081B1811196EC922D
:101730000280F381E02D80E481830F91EF90089582
:10174000EF920F931F93FC0100831183E282638366
:101750007483458356832783108611861F910F91CA
:10176000EF900895CF93DF93FC01A581B681189681
:101770008C911897C081D181988194FD03C091E02C
:10178000948329C09B8115960D90BC91A02DA80F24
:10179000B11D9C938F5FA581B68117969C91179779
:1017A000891760F413960D90BC91A02DA80FB11D60
:1017B0009C91A081B18113969C930DC012969C912F
:1017C00012970D90BC91A02D15969C93A581B68182
:1017D00091E019969C930580F681E02D8087DF913A
:1017E000CF910895CF93DF93FC01DB018481C58104
:1017F000D681209751F09985992331F1882329F0DA
:10180000C281D3818C8184FF21C0A583B6831996C0
:101810001C921997148212968C9112970D90BC917C
:10182000A02D16968C93A581B68118961C92A58141
:10183000B68113960D90BC91A02D8C910190F081F2
:10184000E02D838380E003C082E001C081E0DF916E
:10185000CF910895DC01ED91FC9111976383ED9197
:10186000FC91828187FFFDCF83810895CF93DF9321
:10187000FC01DB01109709F443C06583768312965F
:101880003C911297CD91DC911197209709F03E83FE
:1018900017962C9180E090E0A581B6818217F8F42C
:1018A00013960D90BC91A02DA80FB91F4C91A0814B
:1018B000B18113964C93A081B18112964C911297ED
:1018C00047FFFBCF13964C91A581B68115960D90DD
:1018D000BC91A02DA80FB91F4C930196DDCF0D90A0
:1018E000BC91A02D109711F015963C93A581B6815F
:1018F00018962C930580F681E02D81E0818701C048
:1019000080E0DF91CF910895FC0160837183428371
:10191000538315861486178616860895FC01628304
:1019200073830895FC01968527859F5F937081E0FE
:10193000921301C080E008950F931F93CF93DF931C
:101940001F92CDB7DEB78C0169830E94920C69812A
:101950008823A9F0D8011E969C911E97F801E90FE3
:10196000F11D60879F5F9370F80196870190F08169
:10197000E02D93819C7F12962C91922B93830F9054
:10198000DF91CF911F910F910895FC0124859585DA
:1019900081E0291301C080E00895FC018585DF0105
:1019A000A80FB11D14968C9195859F5F93709587B4
:1019B0000895FC0184858F5F83702585A081B181A6
:1019C0009C91821749F02485DF01A20FB11D149666
:1019D0009C93848781E0089580E00895CF93DF93FE
:1019E000FC0187859685A081B181981307C0139665
:1019F0008C9113978C7F13968C930AC08785EF0187
:101A0000C80FD11D88858C9387858F5F83708787EA
:101A1000DF91CF910895FC01848170FF02C0816045
:101A200001C08E7F848360830895FC01848180FFE0
:101A300004C0808190E091600895808190E00895D5
:101A4000CF93DF93CDB7DEB76397CDBFDEBF80E125
:101A5000809302068093140690E29093020680938E
:101A6000150690E4909302068093160690E89093F2
:101A700002068093170632E03093810621E020931E
:101A8000810694E09093810688E0809381063093EC
:101A9000860620938506909386068093860600E04E
:101AA00010E020E030E040E068E070E080E293E0A9
:101AB0000E94740861E070E080E293E00E948F0869
:101AC0008823C1F341E050E060E078E080E293E0F9
:101AD0000E94860860E070E080E293E00E948F0838
:101AE0008823C1F340E050E060E078E080E293E0DA
:101AF0000E94860888E08093410684E08093420635
:101B000041E050E060EA78E08DEF91E20E94840CC1
:101B100083E08093A5088091A3088F7C80618093E7
:101B2000A3088CE08093A6081092A7088091A408CF
:101B300080618093A4088091A40888608093A408A1
:101B400080E092E00E94AB0180910102897E806179
:101B50008093010280910402887F81608093040257
:101B6000809102028F7C806180930202809120022A
:101B7000807E82608093200280912802807E826035
:101B80008093280211E01093210281E180932902C1
:101B9000809100028160809300020E945A0A0E9494
:101BA0005A0A0E94900A0E94860A6CE084E290E23F
:101BB0000E94E80A2FE78AE196E021508040904099
:101BC000E1F700C000001B8A1A8B198A188A1F8649
:101BD00000E010E0B801605070404DE150E0C801F5
:101BE00082549F4D0E948A15035E1F4F0F3321E0E0
:101BF000120781F78091A20081608093A2007894FF
:101C000061E370E28BED90E20E94E21281E080934A
:101C1000EA2088E191E08093EB209093EC2084E42B
:101C20009DEF8093ED209093EE208CEB92E08093DB
:101C3000EF209093F02082E090E08093F120909349
:101C4000F22087E090E08093F3209093F4201092AC
:101C5000F5201092F62082E08093F72000E010E05B
:101C6000B801605070404DE150E0C80182549F4D72
:101C70000E949615035E1F4F0F3381E0180781F70E
:101C8000CE0101965C018B8981112FC00E94900AC0
:101C90000E94860A61E081E490E20E94E80A6EE018
:101CA00083E490E20E94E80A61E080E00E949A0AE0
:101CB00068E082E590E20E94E80ACE010D966C0190
:101CC00002967C018E01005F1F4F9E012F5E3F4FE9
:101CD000AE014E5E5F4FBE016D5E7F4F8EEB90E2B8
:101CE0000E94D901019749F7CECF853009F0BDC0D8
:101CF0000E94900A0E94860A68E08BE590E20E94AA
:101D0000E80A6091BA207091BB208091BC2090912C
:101D1000BD200E94F310072E000C880B990B0E9427
:101D20002B119B01AC01CB01DA018093BA20909377
:101D3000BB20A093BC20B093BD205F934F933F93F3
:101D40002F9304E610E21F930F93BF92AF920E946D
:101D5000E91268E0C5010E94E80A61E080E00E94A3
:101D60009A0A60910D2270910E2280910F2290911B
:101D700010220E94F310072E000C880B990B0E9472
:101D80002B1160930D2270930E2280930F2290935B
:101D9000102267E088E690E20E94E80A8091102213
:101DA0008F9380910F228F9380910E228F93809139
:101DB0000D228F931F930F93BF92AF920E94E9124F
:101DC00068E0C5010E94E80A62E080E00E949A0A89
:101DD000609111227091122280911322909114220D
:101DE0000E94F310072E000C880B990B0E942B11F8
:101DF00060931122709312228093132290931422E5
:101E000066E080E790E20E94E80A809114228F93B6
:101E1000809113228F93809112228F9380911122AF
:101E20008F931F930F93BF92AF920E94E91268E0C5
:101E3000C5010E94E80ACDBFDEBFCE010D966C0140
:101E400002967C018E01005F1F4F9E012F5E3F4F67
:101E5000AE014E5E5F4FBE016D5E7F4F8EEB90E236
:101E60000E94D901019749F70ECF813031F50E94C8
:101E7000900A0E94860A61E081E490E20E94E80AEA
:101E80006AE087E790E20E94E80ACE010D966C01B5
:101E900002967C018E01005F1F4F9E012F5E3F4F17
:101EA000AE014E5E5F4FBE016D5E7F4F8EEB90E2E6
:101EB0000E94D901019749F7E6CE823081F50E9450
:101EC000900A0E94860A6AE082E890E20E94E80A8C
:101ED000EA899DE1E99FF0011124E254FF4DE08C75
:101EE000F18C06891789248935894289538960894B
:101EF0007189C48CCF010E9426028D879E8701962E
:101F000059F48FE79AE126E0815090402040E1F7B4
:101F100000C0000083E001C084E08B8BB4CE84302D
:101F200009F0B1CE0E94900A0E94860A6DE08EE808
:101F300090E20E94E80A61E080E00E949A0A6EE066
:101F40008CE990E20E94E80A62E080E00E949A0A2E
:101F50006CE08BEA90E20E94E80ACE010D966C01DB
:101F600002967C018E01005F1F4F9E012F5E3F4F46
:101F7000AE014E5E5F4FBE016D5E7F4F8EEB90E215
:101F80000E94D901019749F77ECEAA1BBB1B51E1E4
:101F900007C0AA1FBB1FA617B70710F0A61BB70BD9
:101FA000881F991F5A95A9F780959095BC01CD017E
:101FB000089597FB072E16F4009407D077FD09D0FB
:101FC0000E94C50F07FC05D03EF4909581959F4F68
:101FD0000895709561957F4F0895A1E21A2EAA1B6E
:101FE000BB1BFD010DC0AA1FBB1FEE1FFF1FA217C9
:101FF000B307E407F50720F0A21BB30BE40BF50BC6
:10200000661F771F881F991F1A9469F7609570954E
:10201000809590959B01AC01BD01CF01089550586A
:10202000BB27AA270E9427100C94A1110E9493118C
:1020300038F00E949A1120F039F49F3F19F426F4E9
:102040000C9490110EF4E095E7FB0C948A11E92FA3
:102050000E94B21158F3BA176207730784079507F5
:1020600020F079F4A6F50C94D4110EF4E0950B2E23
:10207000BA2FA02D0B01B90190010C01CA01A001DA
:102080001124FF27591B99F0593F50F4503E68F135
:102090001A16F040A22F232F342F4427585FF3CF76
:1020A000469537952795A795F0405395C9F77EF447
:1020B0001F16BA0B620B730B840BBAF09150A1F090
:1020C000FF0FBB1F661F771F881FC2F70EC0BA0F16
:1020D000621F731F841F48F4879577956795B7959E
:1020E000F7959E3F08F0B0CF9395880F08F0992799
:1020F000EE0F9795879508950E94661108F481E088
:1021000008950E9495100C94A1110E949A1158F004
:102110000E94931140F029F45F3F29F00C948A113A
:1021200051110C94D5110C9490110E94B21168F3C6
:102130009923B1F3552391F3951B550BBB27AA2780
:1021400062177307840738F09F5F5F4F220F331FBA
:10215000441FAA1FA9F335D00E2E3AF0E0E832D082
:1021600091505040E695001CCAF72BD0FE2F29D085
:10217000660F771F881FBB1F261737074807AB0757
:10218000B0E809F0BB0B802DBF01FF2793585F4FCC
:102190003AF09E3F510578F00C948A110C94D511B9
:1021A0005F3FE4F3983ED4F3869577956795B795AE
:1021B000F7959F5FC9F7880F911D9695879597F9B9
:1021C0000895E1E0660F771F881FBB1F6217730732
:1021D0008407BA0720F0621B730B840BBA0BEE1F47
:1021E00088F7E09508950E94FA106894B1110C9454
:1021F000D51108950E94BA1188F09F5798F0B92F11
:102200009927B751B0F0E1F0660F771F881F991F2B
:102210001AF0BA95C9F714C0B13091F00E94D411E8
:10222000B1E008950C94D411672F782F8827B85FF8
:1022300039F0B93FCCF3869577956795B395D9F783
:102240003EF490958095709561957F4F8F4F9F4F8D
:102250000895E89409C097FB3EF490958095709599
:1022600061957F4F8F4F9F4F9923A9F0F92F96E9E2
:10227000BB279395F695879577956795B795F11157
:10228000F8CFFAF4BB0F11F460FF1BC06F5F7F4FF4
:102290008F4F9F4F16C0882311F096E911C0772306
:1022A00021F09EE8872F762F05C0662371F096E80F
:1022B000862F70E060E02AF09A95660F771F881FDE
:1022C000DAF7880F9695879597F90895990F000882
:1022D000550FAA0BE0E8FEEF16161706E807F907F8
:1022E000C0F012161306E407F50798F0621B730B93
:1022F000840B950B39F40A2661F0232B242B252B14
:1023000021F408950A2609F4A140A6958FEF811DB6
:10231000811D089597F99F6780E870E060E0089557
:102320009FEF80EC089500240A94161617061806ED
:102330000906089500240A941216130614060506C9
:102340000895092E0394000C11F4882352F0BB0F5A
:1023500040F4BF2B11F460FF04C06F5F7F4F8F4FBD
:102360009F4F089557FD9058440F551F59F05F3FF8
:1023700071F04795880F97FB991F61F09F3F79F0A7
:1023800087950895121613061406551FF2CF469529
:10239000F1DF08C0161617061806991FF1CF8695AB
:1023A0007105610508940895E894BB27662777278F
:1023B000CB0197F908950E94EE110C94A1110E948F
:1023C000931138F00E949A1120F0952311F00C948B
:1023D0008A110C94901111240C94D5110E94B21101
:1023E00070F3959FC1F3950F50E0551F629FF00168
:1023F000729FBB27F00DB11D639FAA27F00DB11D81
:10240000AA1F649F6627B00DA11D661F829F222709
:10241000B00DA11D621F739FB00DA11D621F839F90
:10242000A00D611D221F749F3327A00D611D231F66
:10243000849F600D211D822F762F6A2F11249F57B4
:1024400050409AF0F1F088234AF0EE0FFF1FBB1FB7
:10245000661F771F881F91505040A9F79E3F510576
:1024600080F00C948A110C94D5115F3FE4F3983EF0
:10247000D4F3869577956795B795F795E7959F5F20
:10248000C1F7FE2B880F911D9695879597F90895B2
:102490000E94BA11E8F09E37E8F09639B8F49E38F9
:1024A00048F4672F782F8827985FF9CF869577951E
:1024B000679593959539D0F3B62FB1706B0F711D59
:1024C000811D20F487957795679593950C94B212AA
:1024D0000C94CD120C94D51119F416F40C9490119F
:1024E0000C94CD120E94BA11B8F39923C9F3B6F334
:1024F0009F57550B87FF0E94DB120024A0E640EA9D
:10250000900180585695979528F4805C660F771F48
:10251000881F20F026173707480730F4621B730B1B
:10252000840B202931294A2BA6951794079420253E
:1025300031254A2758F7660F771F881F20F0261786
:102540003707480730F4620B730B840B200D311DE5
:10255000411DA09581F7B901842F9158880F969558
:1025600087950895882371F4772321F09850872B5D
:10257000762F07C0662311F499270DC09051862B42
:1025800070E060E02AF09A95660F771F881FDAF7EF
:10259000880F9695879597F908959F3F31F0915050
:1025A00020F4879577956795B795880F911D969537
:1025B000879597F9089591505040660F771F881FAF
:1025C000D2F70895FB01DC0101900D920020E1F7A4
:1025D0000895AEE0B0E0EFEEF2E10C94D1150D8974
:1025E0001E8986E08C8309831A838FEF9FE78D8392
:1025F0009E83AE01475E5F4F6F89788DCE01019655
:102600000E940C132F813885F801E20FF31F10820E
:102610002E96E4E00C94EA15ACE0B0E0E2E1F3E1E0
:102620000C94C3157C016B018A01FC011682178290
:10263000838181FFBDC1CE0101964C01F7019381D9
:10264000F60193FD859193FF81916F01882309F431
:10265000ABC1853239F493FD859193FF81916F0170
:10266000853229F4B70190E00E94F414E7CF512C91
:10267000312C20E02032A0F48B3269F030F480322B
:1026800059F0833269F420612CC08D3239F08033E7
:1026900039F4216026C02260246023C0286021C054
:1026A00027FD27C030ED380F3A3078F426FF06C0FA
:1026B000FAE05F9E300D1124532E13C08AE0389E3D
:1026C000300D1124332E20620CC08E3221F426FDF1
:1026D0006BC1206406C08C3611F4206802C08836B5
:1026E00041F4F60193FD859193FF81916F01811172
:1026F000C1CF982F9F7D9554933028F40C5F1F4FC6
:10270000FFE3F9830DC0833631F0833771F08335F1
:1027100009F05BC022C0F801808189830E5F1F4FE2
:1027200044244394512C540115C03801F2E06F0E3B
:10273000711CF801A080B18026FF03C0652D70E0F8
:1027400002C06FEF7FEFC5012C870E94E9142C01B6
:1027500083012C852F77222E17C03801F2E06F0EEF
:10276000711CF801A080B18026FF03C0652D70E0C8
:1027700002C06FEF7FEFC5012C870E94DE142C0191
:102780002C852068222E830123FC1BC0832D90E022
:1027900048165906B0F4B70180E290E00E94F414A4
:1027A0003A94F4CFF50127FC859127FE81915F01D2
:1027B000B70190E00E94F41431103A94F1E04F1AFE
:1027C00051084114510471F7E5C0843611F089367F
:1027D00039F5F80127FF07C06081718182819381FB
:1027E0000C5F1F4F08C060817181072E000C880BA1
:1027F000990B0E5F1F4F2F76722E97FF09C0909591
:102800008095709561957F4F8F4F9F4F2068722EF6
:102810002AE030E0A4010E942C15A82EA81844C07C
:10282000853729F42F7EB22E2AE030E025C0F22F22
:10283000F97FBF2E8F36C1F018F4883579F0B4C017
:10284000803719F0883721F0AFC02F2F2061B22ECA
:10285000B4FE0DC08B2D8460B82E09C024FF0AC0C1
:102860009F2F9660B92E06C028E030E005C020E119
:1028700030E002C020E132E0F801B7FE07C060811D
:102880007181828193810C5F1F4F06C060817181CD
:1028900080E090E00E5F1F4FA4010E942C15A82E2F
:1028A000A818FB2DFF777F2E76FE0BC0372D3E7FBD
:1028B000A51450F474FE0AC072FC08C0372D3E7E89
:1028C00005C0BA2C372D03C0BA2C01C0B52C34FF7B
:1028D0000DC0FE01EA0DF11D8081803311F4397EB7
:1028E00009C032FF06C0B394B39404C0832F867826
:1028F00009F0B39433FD13C030FF06C05A2CB31453
:1029000018F4530C5B18B32CB31468F4B70180E2CD
:1029100090E03C870E94F414B3943C85F5CFB31447
:1029200010F43B1801C0312C34FF12C0B70180E312
:1029300090E03C870E94F4143C8532FF17C031FDC3
:1029400003C088E790E002C088E590E0B7010CC0C2
:10295000832F867859F031FF02C08BE201C080E2FC
:1029600037FD8DE2B70190E00E94F414A51438F40D
:10297000B70180E390E00E94F4145A94F7CFAA9430
:10298000F401EA0DF11D8081B70190E00E94F4147A
:10299000A110F5CF332009F451CEB70180E290E0C9
:1029A0000E94F4143A94F6CFF7018681978102C011
:1029B0008FEF9FEF2C96E2E10C94DC15FC01059063
:1029C000615070400110D8F7809590958E0F9F1F31
:1029D0000895FC016150704001900110D8F7809576
:1029E00090958E0F9F1F08950F931F93CF93DF93A2
:1029F000FB01238121FD03C08FEF9FEF28C022FF41
:102A000016C046815781248135814217530744F40B
:102A1000A081B1819D012F5F3F4F208331838C9333
:102A2000268137812F5F3F4F2683378310C0EB010C
:102A3000092F182F0084F185E02D0995892BE1F6E7
:102A40008E819F8101968E839F83812F902FDF91AE
:102A5000CF911F910F910895FA01AA27283051F1C3
:102A6000203181F1E8946F936E7F6E5F7F4F8F4FBF
:102A70009F4FAF4FB1E03ED0B4E03CD0670F781F1E
:102A8000891F9A1FA11D680F791F8A1F911DA11D03
:102A90006A0F711D811D911DA11D20D009F468943C
:102AA0003F912AE0269F11243019305D3193DEF6E4
:102AB000CF010895462F4770405D4193B3E00FD09A
:102AC000C9F7F6CF462F4F70405D4A3318F0495D85
:102AD00031FD4052419302D0A9F7EACFB4E0A69568
:102AE0009795879577956795BA95C9F7009761058A
:102AF000710508959B01AC010A2E069457954795E0
:102B000037952795BA95C9F7620F731F841F951FD4
:102B1000A01D0895E0ECF1E0A785A7FDFDCFA485F9
:102B2000A860A4876050704F0C94F415DC01CB01B1
:102B300003C02D910E94A11541505040D0F7089537
:102B4000262FE0ECF1E0378537FDFDCF3485377F68
:102B50003487378531FF09C036E3328738ED34BF1B
:102B600031E03387378537FDFDCF33E3328780830C
:102B700091831282248325E3228728ED31E024BF4C
:102B80003387019608952F923F924F925F926F92F2
:102B90007F928F929F92AF92BF92CF92DF92EF92ED
:102BA000FF920F931F93CF93DF93CDB7DEB7CA1B6E
:102BB000DB0BCDBFDEBF09942A88398848885F8443
:102BC0006E847D848C849B84AA84B984C884DF80CD
:102BD000EE80FD800C811B81AA81B981CE0FD11DB1
:102BE000CDBFDEBFED010895FB01DC0102C0019005
:0E2BF0000D9241505040D8F70895F894FFCF51
:102BFE006F757473696465206C696D6974730074A4
:102C0E006F6F206D616E79206461746120706F69E1
:102C1E006E74730043444143204B6F6C6B6174615F
:102C2E000043562023312020202020202020202049
:102C3E00007E005269676874207072657373207429
:102C4E006F0073746172742043560053744465763A
:102C5E00203D2000253864004D65616E203D20002A
:102C6E004D6178203D200053746172742074657339
:102C7E00740054657374696E672E2E2E2E00546583
:102C8E00737420436F6D706C65746500507265735C
:102C9E007320726967687420746F00766965772097
:082CAE00726573756C7473000C
:00000001FF
